:020000040800F2
:10000000F03D012055020008373A00088932000807
:10001000F5390008790B0008255900080000000098
:100020000000000000000000000000009D0100082A
:10003000C92E000800000000F1010008454E00082C
:100040006F0200086F0200086F0200086F020008CC
:100050006F0200086F0200086F0200086F020008BC
:100060006F0200086F0200086F0200086F020008AC
:100070006F0200086F0200086F0200086F0200089C
:100080006F0200086F0200086F0200086F0200088C
:10009000810C00086F0200086F0200086F02000860
:1000A0006F0200086F0200086F0200086F0200086C
:1000B000754F00086F0200086F0200086F02000809
:1000C0006F0200086F0200086F0200086F0200084C
:1000D0006F0200086F02000861550008ED55000826
:1000E0006F0200086F0200086F0200086F0200082C
:1000F0006F0200086F0200086F0200086F0200081C
:100100006F0200086F0200086F0200086F0200080B
:100110006F0200086F020008955100086F02000886
:100120006F0200086F0200086F0200086F020008EB
:100130006F0200086F0200086F0200086F020008DB
:10014000D10F00086F0200086F0200086F0200085C
:10015000CD2B00086F0200086F0200086F02000834
:100160006F0200086F0200086F0200086F020008AB
:100170006F0200086F0200086F0200086F0200089B
:100180006F0200086F020008DFF80CD000F0A6FA3A
:100190000048004771640008F03D01202A4B1968AF
:1001A0000868B0E8F04F80F30988BFF36F8F4FF015
:1001B000000080F3118870470000000006480068C6
:1001C000006880F3088862B661B6BFF34F8FBFF353
:1001D0006F8F00DF00BF00BF08ED00E0DFF80C000C
:1001E000016841F470010160704700BF88ED00E0D4
:1001F000EFF30980BFF36F8F134B1A681EF0100FD7
:1002000008BF20ED108A20E9F04F106008B44FF0CD
:10021000500080F31188BFF34F8FBFF36F8F07F04B
:100220004FFA4FF0000080F3118808BC1968086885
:10023000B0E8F04F1EF0100F08BFB0EC108A80F34A
:100240000988BFF36F8F704724000020EFF305800B
:10025000704700000648804706480047FEE7FEE773
:10026000FEE7FEE7FEE7FEE7FEE7FEE7FEE7FEE766
:10027000794E00088901000840EA01039B0703D07A
:1002800009E008C9121F08C0042AFAD203E011F8D5
:10029000013B00F8013B521EF9D27047D2B201E097
:1002A00000F8012B491EFBD270470022F6E710B57B
:1002B00013460A4604461946FFF7F0FF204610BDD4
:1002C0002DE9FE4F804681EA0300C00F0C460090E6
:1002D00021F0004123F00045B8EB0200A94105D20E
:1002E0004046214690461C460B46024623F00040FD
:1002F000104347D0270DC7F30A00C3F30A510290F9
:10030000401A019040286BDAC3F3130040F4801BBD
:100310000098924620B10023D2EB030A63EB0B0B4B
:1003200001985946C0F14002504600F022F90646B5
:100330000D4650465946019A00F02AF910EB080084
:100340006141002487EA115284EAE7731A4340D0DE
:10035000009A62B3019A012A4FEA075215DC001B8A
:1003600061EB02014FF0004202EA0752CDE9004280
:10037000001C41F5801132462B4600F061F903B0B4
:10038000BDE8F08F40462146F9E7001B61EB020112
:10039000001C41F5801300185B412018A2F50017DE
:1003A00047EB030140EAD570B6196D4111E06D08C5
:1003B0004FEA360645EAC0754FEA0752001B61EB6B
:1003C0000201001C41F5801149084FEA3000001974
:1003D000514132462B4603B0BDE8F04F00F021B941
:1003E0000098012240000023D0EB020263EBE0738F
:1003F000009821464FEAE074B8EB000061EB04017D
:10040000E9E783F000435BE781F0004158E72DE91D
:10041000FE4F81EA030404F0004421F000410094FF
:100420004FF0000B23F0004350EA01045ED052EA83
:1004300003045BD0C3F30A54C1F30A552C44A4F25D
:10044000F3340194A0FB0254C1F3130141F4801171
:10045000C3F3130343F4801301FB024400FB034E78
:10046000840A970A44EA815447EA8357A4FB076841
:1004700002958D0A05FB07854FEA932C04FB0C546B
:100480002705029D4FEA065847EA1637B5EB0805DF
:100490006EEB070C870E920E47EA811742EA831231
:1004A000A7FB0201B6EB0B0164EB00042B0D43EA42
:1004B0000C335E1844EB1C50DA465146E7FB020150
:1004C000C5F313044FEA0B3343EA14534FEA0432E3
:1004D000019C43EA0603A4F10C040294009CCDE9BC
:1004E00000B400F0ADF803B0BDE8F08F0020014685
:1004F000F9E70EB5C10F80EAE0700844CA07002191
:1005000040F233438DE80E000A460B4600F098F89F
:1005100003B000BD00F0004230F000400AD0C10D31
:1005200001F56071C0F3160042EA0151C2084007AC
:100530001143704700200146704701F0004330B47A
:1005400021F0004150EA010206D00A0DA2F56072C6
:10055000C1F31301002A02DC30BC00207047440FB5
:1005600044EAC104C100E01830BC00EBC25000F006
:1005700021B8202A04DB203A00FA02F1002070475B
:100580009140C2F1200320FA03F3194390407047D1
:10059000202A06DBCB17203A41FA02F043EAE07347
:1005A00006E041FA02F3D040C2F120029140084334
:1005B000194670470029A8BF7047401C490008BF72
:1005C00020F00100704710B4B0FA80FC00FA0CF083
:1005D00050EA010404BF10BC704749B1CCF12004BB
:1005E00021FA04F411FA0CF118BF01212143084348
:1005F000A3EB0C01CB1D4FEA00614FEA102042BF74
:10060000002010BC704700EBC35010440029A4BF69
:1006100010BC7047401C490008BF20F0010010BC0E
:10062000704710B5141E73F1000408DA401C41F144
:10063000000192185B411A4301D120F0010010BD66
:100640002DE9F04D92469B4611B1B1FA81F202E0DC
:10065000B0FA80F220329046FFF78BFF04460F4637
:1006600040EA0A0041EA0B0153465A46084313D0B8
:10067000114653EA010019D0C8F14002504600F07B
:100680003FF805460E46504659464246FFF771FF71
:10069000084305D0012004E020463946BDE8F08D2E
:1006A0000020054346EAE0762C4337430A98630569
:1006B000E40AA0EB08000022FD0A44EA47540A308D
:1006C00002D500200146E9E7010510196941DDE97D
:1006D000084500196941BDE8F04DA2E7064C074DF9
:1006E00006E0E06840F0010394E807009847103402
:1006F000AC42F6D3FFF74CFDA0840008C08400088C
:10070000202A04DB203A21FA02F00021704721FA66
:1007100002F3D040C2F120029140084319467047CD
:100720002DE9F04D81EA030404F0004B21F000456F
:1007300014464FF0000A23F0004150EA050220D091
:1007400054EA01021DD0C5F30A570246C5F313034C
:10075000C1F31300C1F30A5640F4801543F480132B
:10076000A7EB0608101BD64608F2FD3873EB050010
:1007700002D308F1010801E092185B41B8F1000FC3
:1007800003DA00200146BDE8F08D00204FF480110F
:10079000064684460EE0171B73EB050705D3121BB4
:1007A00063EB050306434CEA010C49084FEA3000AD
:1007B00092185B4150EA0107EDD152EA030012D0D2
:1007C00082EA040083EA0501084305D0101BAB410F
:1007D00006D20122002306E000224FF0004302E08F
:1007E0006FF0010253101AEB06004CEB085110EBAE
:1007F0000A0041EB0B01BDE8F04DFFF712BF0EB54B
:1008000040F2334102910021CDE900110A460B4626
:10081000FFF716FF03B000BD70B5C1F30A5201F037
:1008200000450024C1F3130140F2FF3341F480116D
:100830009A4201DA002070BD40F233439A42A2F29C
:10084000334203DC5242FFF75BFF00E090402C4351
:10085000F1D0404270BD70B58C1810F8015B15F0F6
:10086000070301D110F8013B2A1106D110F8012B22
:1008700003E010F8016B01F8016B5B1EF9D12B0747
:1008800005D40023521E0DD401F8013BFAE710F8FD
:10089000013BCB1A921C03E013F8015B01F8015BEA
:1008A000521EF9D5A142D8D3002070BD01EBD173FF
:1008B0005B105B42834202DD4A1E024410B201EB30
:1008C000D173B0EB630F02DD4A1E821A10B270477B
:1008D00000B58BB00121402003F01EFE01218020D5
:1008E00003F00AFE0121402003F026FE00214020F3
:1008F00003F022FE092206211F4802F0E6FB4020F9
:10090000099002208DF8280003208DF8290000208E
:100910008DF82A0002208DF82B0009A9164802F054
:100920008CFB6020ADF804000120ADF8060000202B
:10093000ADF8100001A9114804F084FC08210F480B
:1009400004F0BEFC01210D4804F044FC47F22F5096
:1009500007905920ADF818000020ADF81A00ADF846
:10096000200006A9054804F0B9FD0121034804F060
:1009700043FC0BB000BD0000001C0240001800400A
:1009800010B5FE2009490870EF20487000BF4021D3
:10099000074804F0FDFE0028F9D00448054A127803
:1009A000815C034804F0BAFF10BD0000A6000020DF
:1009B00000440040A900002000B58FB001215A4832
:1009C00003F09AFD0121480403F0A6FD072205214A
:1009D000564802F07AFB07220621544802F075FBC4
:1009E00060200D9002208DF8380000208DF83A002C
:1009F00002208DF8390001208DF83B000DA94B48ED
:100A000002F01BFB4A4804F04BFE4FF4E130089023
:100A10000020ADF82400ADF82600ADF828000C2029
:100A2000ADF82A000020ADF82C0008A9404804F0D9
:100A30000BFF26208DF8300001208DF833008DF853
:100A400031008DF832000CA802F0F6FF012240F2CE
:100A50002441374804F0D3FE0121354804F00AFE52
:100A6000344802F009F94FF0006000903048001D52
:100A700001903148029040200390192004900020FA
:100A800005904FF4806006900020079008904FF486
:100A9000807009904FF440300A9000200B900C9029
:100AA0000D900E906946234802F0E0F9002121489C
:100AB00002F0D6F8012280211D4804F0E7FD1D4810
:100AC000183802F0D9F84FF0006000901848001D67
:100AD00001901A48029000200390192004900020F1
:100AE00005904FF4806006900020079008904FF426
:100AF000807009904FF440300A9000200B900C90C9
:100B00000D900E9069460B48183802F0AFF901219C
:100B10000848183802F0A4F801224021044804F0E3
:100B2000B5FD0FB000BD000008002000000C024021
:100B300000440040A0600240F4320120263301202E
:100B400010B51220094908703420487000BF4021B8
:100B5000074804F01DFE0028F9D00448054A127821
:100B6000815C034804F0DAFE10BD0000A400002000
:100B700000440040A800002000BFFEE72DE9F0413E
:100B80008AB004460D4616461F46DDF84080012116
:100B9000082003F0B1FC0121480603F0BDFC092246
:100BA0000021354802F091FA09220121324802F071
:100BB0008CFA0320019002208DF8080000208DF8A7
:100BC0000A0003208DF8090001208DF80B0001A90F
:100BD000294802F032FA14208DF8000001208DF827
:100BE00001008DF802008DF80300684602F024FF32
:100BF000224800F08DFB07A800F0C5FD00208DF80D
:100C000022008DF823008DF824008DF825008DF842
:100C1000260001208DF827008DF81E808DF81F40DA
:100C20008DF820508DF82160ADF81C7007A913488D
:100C300000F0A7FC00208DF816008DF817000120A9
:100C40008DF818000020ADF80C00ADF80E00ADF8DE
:100C50001000ADF81200ADF8140001208DF8190055
:100C600003A800F071FB01220221044800F080FC7F
:100C70000AB0BDE8F0810000000C024000640040B2
:100C800000B585B00221494800F0E2FB002877D08A
:100C90000221464800F0E8FA4549444800F0C8FA05
:100CA0006A460021414800F0F6FC0098A0F20120BD
:100CB000072878D2DFE800F00416283A4C77650060
:100CC0009DF80C009DF80B1040EA0120394908609E
:100CD0009DF80E109DF80D0041EA002000B2354944
:100CE000888060E09DF80C009DF80B1040EA012020
:100CF000304908619DF80E109DF80D0041EA002072
:100D000001B22C4881824EE09DF80C009DF80B103A
:100D100040EA0120274908629DF80E109DF80D0059
:100D200041EA002001B2234881843CE09DF80C0098
:100D30009DF80B1040EA01201E4908639DF80E1033
:100D40009DF80D0041EA002001B21A4881862AE090
:100D50009DF80C009DF80B1040EA01201649086030
:100D60004FF400523921144802F046FE9DF80E104F
:100D70009DF80D0041EA002000B20F49888012E082
:100D800012E09DF80C009DF80B1040EA01200B4981
:100D900008609DF80E109DF80D0041EA002000B299
:100DA0000649888000BF00BF05B000BD0064004058
:100DB0000800003250390120A0390120B03901204B
:100DC0002DE9F04385B004460D4616461F464FF008
:100DD00000084FF40070009000208DF808008DF896
:100DE000090008208DF80A00200A8DF80B00E1B2F6
:100DF0008DF80C10290A8DF80D10E9B28DF80E103F
:100E0000310A8DF80F10F1B28DF81010390A8DF8F3
:100E10001110F9B28DF8121069460B4800F0C3FCAE
:100E2000814600BF03E008F101001FFA80F849463F
:100E3000054800F04BFD18B940F6FF708045F2DB25
:100E400005B0BDE8F0830000006400402DE9F041EA
:100E500086B004460D461646002740F2FF1001906A
:100E600000208DF80C008DF80D0008208DF80E0084
:100E7000200A8DF80F008DF81040290A8DF8111006
:100E80008DF81250310A8DF813108DF8146000217E
:100E90008DF815108DF8161001A90A4800F083FC92
:100EA000804600BF01E0781C87B24146054800F04B
:100EB0000DFD18B940F6FF708742F4DB06B0BDE8BF
:100EC000F0810000006400402DE9F0418AB0044642
:100ED0000D4616461F46DDF840800121022003F032
:100EE0000BFB0121880603F017FB09220521364878
:100EF00002F0EBF809220621334802F0E6F8602000
:100F0000019002208DF8080000208DF80A000320CF
:100F10008DF8090001208DF80B0001A92A4802F084
:100F20008CF840208DF8000002208DF8010001208F
:100F30008DF802008DF80300684602F07DFD23481D
:100F400000F0E6F907A800F01EFC00208DF8220052
:100F50008DF823008DF824008DF825008DF82600EB
:100F600001208DF827008DF81E808DF81F408DF828
:100F700020508DF82160ADF81C7007A9134800F0CF
:100F800000FB0E208DF8160000208DF817000120C0
:100F90008DF818000020ADF80C00ADF80E00ADF88B
:100FA0001000ADF81200ADF8140001208DF8190002
:100FB00003A800F0C9F901220221044800F0D8FA80
:100FC0000AB0BDE8F0810000000402400068004063
:100FD00000B585B002211A4800F03AFA68B3022140
:100FE000174800F041F96A460021154800F053FB0C
:100FF0000098B0F5407F1FD19DF80B0011490860A3
:101000009DF80D109DF80C0041EA002000B20E4939
:1010100048809DF80E000A2190FBF1F040B20B4988
:1010200008709DF80E000A2190FBF1F201FB1200FE
:1010300040B20749087000BF00BF05B000BD000006
:101040000068004028010020140100201C0100203D
:101050003001002030B585B0002440F201400090FE
:1010600000208DF808008DF8090008208DF80A008E
:1010700020488089000A8DF80B001E48017B8DF8FE
:101080000C10C089010A8DF80D101A48817B8DF86B
:101090000E10C08A01128DF80F101648817D8DF850
:1010A0001010407A1349097A01EB810100EB4100ED
:1010B000C1B28DF811100F48417D007D401C00EB3E
:1010C000800001EB4000C1B28DF8121069460A4859
:1010D00000F069FB054600BF01E0601C84B22946B0
:1010E000054800F0F3FB18B940F6FF708442F4DBCA
:1010F00005B030BDC53301200068004030B585B073
:1011000000244FF48060009000208DF808008DF8D6
:10111000090008208DF80A0020488088000A8DF810
:101120000B001E4801798DF80C10C088010A8DF85B
:101130000D101A4881798DF80E104089010A8DF83A
:101140000F101648817A8DF81010407A1349097AE9
:1011500001EB810100EB4100C1B28DF811100F4885
:10116000417D007D401C00EB800001EB4000C1B2DE
:101170008DF8121069460A4800F015FB054600BFBD
:1011800001E0601C84B22946054800F09FFB18B9B5
:1011900040F6FF708442F4DB05B030BDC53301205A
:1011A0000068004030B585B0002440F20240009055
:1011B00000208DF808008DF8090008208DF80A003D
:1011C0001948C068000E8DF80B001748C068010C64
:1011D0008DF80C1014488089010A8DF80D10124802
:1011E000017B8DF80E108088010A8DF80F100E48D3
:1011F00001798DF8101000218DF811108DF8121062
:1012000069460A4800F0CFFA054600BF01E0601CBD
:1012100084B22946054800F059FB18B940F6FF7022
:101220008442F4DB05B030BDA039012000680040E5
:1012300000220C4B994202D10023836111E0C1F3DB
:10124000130201F000730BB1C2600AE001F0806389
:101250000BB1026105E001F000630BB1826000E0B8
:10126000426070477000F030B1F5007F3AD00FDC7B
:10127000202928D006DC01291CD004291DD00829EA
:1012800040D11DE0402921D0B1F5807F3AD126E040
:10129000B1F5004F31D006DCB1F5806F25D0B1F546
:1012A000006F2FD124E0B1F5803F12D0B1F5003F9F
:1012B00028D111E0154A826025E00822C26022E0B0
:1012C0001022C2601FE0082202611CE010220261AD
:1012D00019E00822426016E01022426013E0042266
:1012E000426010E0042242600DE0042242600AE005
:1012F000002282610422426005E000228261042211
:10130000426000E000BF00BF704700000101010023
:1013100010B504460B48844209D10121480603F068
:101320000BF900214FF0007003F006F908E00121ED
:10133000880603F001F900214FF0806003F0FCF80B
:1013400010BD00000064004010B50021837A012226
:1013500002FA03F13D4A126842F001023B4B1A6067
:101360003A4A1C3212688A43384B1C331A60027B9B
:10137000CAB9364A0C3212688A43344B0C331A60AD
:101380004288C38842EA0343304A4032847A42F8B2
:1013900034300288838842EA03432C4A4032847AFC
:1013A00002EBC4025360027B012A19D1274A0C3296
:1013B00012680A43254B0C331A604288038842EABC
:1013C0000343224A4032847A42F83430C288838808
:1013D00042EA03431D4A4032847A02EBC40253605E
:1013E000C27A3AB9194A121D12688A43174B1B1D5B
:1013F0001A6006E0154A121D12680A43134B1B1DA2
:101400001A60028932B9114A143212688A430F4BAA
:1014100014331A600289012A06D10C4A1432126868
:101420000A430A4B14331A60427B012A06D1074A49
:101430001C3212680A43054B1C331A60034A1268B7
:1014400022F00102014B1A6010BD0000006600404E
:1014500070B504460D46002660692840002871D00A
:10146000B5F5807F5CD010DC082D35D006DC012D71
:1014700020D0022D24D0042D72D127E0102D31D0A0
:10148000202D35D0402D6BD138E0B5F5004F60D020
:1014900009DCB5F5007F49D0B5F5806F4CD0B5F5C6
:1014A000006F5DD14FE0B5F5803F2DD0B5F5003F21
:1014B00056D12FE0A0682D4901F036FB064651E0D9
:1014C000E068032101F030FB06464BE0E0680821AC
:1014D00001F02AFB064645E0E068102101F024FBFC
:1014E00006463FE02069032101F01EFB064639E075
:1014F0002069082101F018FB064633E0206910211D
:1015000001F012FB06462DE06068082101F00CFB9B
:10151000064627E06068102101F006FB064621E040
:10152000A069012101F000FB06461BE0A069022131
:1015300001F0FAFA064615E0A069042101F0F4FA78
:1015400006460FE00FE0A069702101F0EDFA0646B3
:1015500008E06068042101F0E7FA064602E0FFE7D0
:10156000002600BF00E00026304670BD01010100EA
:101570001AB143690B43436102E043698B43436102
:10158000704730B5024600200023146824F002049E
:101590001460146844F00104146000E05B1C54689B
:1015A00004F001041CB94FF6FF74A342F6D154684D
:1015B00004F001040CB900206CE08C79012C04D1FA
:1015C000146844F08004146003E0146824F080047C
:1015D0001460CC79012C04D1146844F040041460E8
:1015E00003E0146824F0400414600C7A012C04D148
:1015F000146844F02004146003E0146824F020040C
:1016000014604C7A012C04D1146844F01004146066
:1016100003E0146824F0100414608C7A012C04D1C7
:10162000146844F00804146003E0146824F008040B
:101630001460CC7A012C04D1146844F004041460C2
:1016400003E0146824F0040414608C78A407CD78B7
:1016500044EA05640D7944EA05444D7944EA0554A9
:101660000D886D1E2C43D461146824F001041460AD
:10167000002300E05B1C546804F001041CB14FF629
:10168000FF74A342F6D1546804F001040CB10020A9
:1016900000E0012030BD10B500F5D87303EB011355
:1016A0001B6803F004031372137A53B900F5D8735F
:1016B00003EB01131B6840F2FF7404EA53531360F9
:1016C00009E000F5D87303EB01131B686FF0604469
:1016D00004EAD303536000F5D87303EB01131B68CE
:1016E00003F00203537200F5D87303EB01135B6838
:1016F00003F00F03937200F5D87303EB01135B68DB
:101700001B0AD37400F5D87303EB01139B68D372E3
:1017100000F5D87303EB01139B681C0A147300F5E2
:10172000D87303EB01139B681C0C547300F5D8733A
:1017300003EB01139B681B0E937300F5D87303EB47
:101740000113DB68D37300F5D87303EB0113DB6877
:101750001C0A147400F5D87303EB0113DB681C0C2E
:10176000547400F5D87303EB0113DB681B0E9374FC
:1017700021B9C36843F02003C36003E0036943F069
:101780002003036110BD00218171C171017241729A
:101790008172C1728170C170032101710221417196
:1017A00001210180704710B502460020936803F0C4
:1017B0008063B3F1806F00D110E0936803F00063A1
:1017C000B3F1006F01D1012008E0936803F080536A
:1017D000B3F1805F01D1022000E00420042874D01E
:1017E00002F5C07303EB00131B6803F0010402F55C
:1017F000C07303EB00131C600B7A7BB94B7A0C8827
:1018000043EA445302F5C07404EB001424682343F4
:1018100002F5C07404EB0014236010E00B7A4C68EE
:1018200043EAC4034C7A234302F5C07404EB00146A
:101830002468234302F5C07404EB001423608B7A00
:1018400003F00F038B7202F5C07303EB00135B68A8
:1018500023F00F0402F5C07303EB00135C6002F584
:10186000C07303EB00135B688C7A234302F5C074EA
:1018700004EB001463608B7B1C064B7B44EA03443F
:101880000B7B44EA0323CC7A234302F5C07404EBB8
:101890000014A3608B7C1C064B7C44EA03440B7C45
:1018A00044EA0323CC7B234302F5C07404EB001409
:1018B000E36002F5C07303EB00131B6843F00104FF
:1018C00002F5C07303EB00131C6010BD10B5024697
:1018D000002321B1012907D002290FD109E0906826
:1018E0001D4C00EA04030BE090681C4C00EA040362
:1018F00006E090681A4C00EA040301E0002300BFF0
:1019000000BF184C181BA34216D007DC83B16FF040
:101910008060184470B1022818D111E0B0F5007F42
:1019200010D0114C204448B1B0F5003F0ED10BE06F
:1019300002230DE000230BE0002309E0002307E071
:10194000012305E0012303E0012301E0002300BFA0
:1019500000BFD8B210BD000003000004000300085F
:1019600000000310000100080001FFF710B51A483D
:1019700090ED000A194880ED000A90ED000ABDEED6
:10198000C00A174880ED030A9FED160A01F0C0FD5A
:1019900000EE100AB8EEC00A104880ED000A124AA4
:1019A000526800EE102ABDEEC00A10EE102A11B2E5
:1019B0000D4A126800EE102ABDEEC00A10EE102A81
:1019C00010B2064A92ED000ABDEEC00A10EE102ACF
:1019D00012B200F025F910BD700100209001002026
:1019E0009035012000000000C039012010B52DED18
:1019F0000C8B8548406800EE100AB5EEC00AF1EE87
:101A000010FA08D18048006800EE100AB5EEC00A4E
:101A1000F1EE10FA7DD07C4841680846FEF77AFD69
:101A200041EC190B794890ED000A9FED791AC0EE50
:101A3000010A9FED780A20EE800A10EE104A204637
:101A4000FEF768FD41EC1B0BB0EE4B0AF0EE6B0AA3
:101A500003F09AFFB0EE40AAF0EE60AA53EC192B07
:101A600051EC1A0BFEF7D3FC41EC180BFEF765FDA9
:101A700069490860644841680846FEF74BFD41EC3F
:101A8000190B6248D0ED000A9FED611A80EE810AC1
:101A9000DFED600A20EE200A10EE104A2046FEF725
:101AA00039FD41EC1C0BB0EE4C0AF0EE6C0A03F071
:101AB000CFFFB0EE40BAF0EE60BA51EC1B0B81F0F4
:101AC000004141EC1A0B53EC192BFEF7A0FC41EC42
:101AD000180BFEF732FD514908604B48006800EED4
:101AE000100AB5EEC00AF1EE10FA77D04648016848
:101AF0000846FEF70FFD41EC1B0B4448D0ED000AF1
:101B00009FED431A80EE810ADFED420A20EE200AA3
:101B100000E063E010EE104A2046FEF7FBFC41ECCB
:101B20001D0BB0EE4D0AF0EE6D0A03F091FFB0EE22
:101B300040CAF0EE60CA53EC1B2B51EC1C0BFEF7B5
:101B400066FC41EC190B34480068FEF7E3FC41ECFD
:101B50001A0B53EC192BFEF7B3FB41EC180BFEF7F5
:101B6000ECFC2D490860284801680846FEF7D2FCC5
:101B700041EC1B0B2548D0ED000A9FED251A80EEA5
:101B8000810ADFED240A20EE200A10EE104A2046DA
:101B9000FEF7C0FC41EC1D0BB0EE4D0AF0EE6D0AF5
:101BA00003F0F2FEB0EE40CAF0EE60CA53EC1B2B1D
:101BB00051EC1C0BFEF72BFC41EC190B174800688D
:101BC000FEF7A8FC41EC1A0B53EC192BFEF778FB3F
:101BD00041EC180BFEF7B1FC1049086000220E48DA
:101BE00090ED000ABDEEC00A10EE100A01B20B48DB
:101BF00090ED000ABDEEC00A10EE100A00B200F02F
:101C00000FF8BDEC0C8B10BDC03901207001002015
:101C100000003443DA0F49408C0100208801002085
:101C200017B581B003AA02A901A800F0ABFDBDF968
:101C30000400B2490880BDF90800B1490880BDF927
:101C4000040000EE100AB8EEC00AAE4801F0D4F964
:101C5000BDEEC00A10EE100A00B2AB490880BDF913
:101C6000080000EE100AB8EEC00AA84801F0C4F956
:101C7000BDEEC00A10EE100A00B2A5490880A548C2
:101C80000078062802D0A348007830B90020A24985
:101C9000088048808880C880E9E0A0480078002853
:101CA00067D19B48B0F90000BDF90C100844964973
:101CB000B1F90010081A00EE100AB8EEC00AF2EEF0
:101CC0000C0A20EE200ABDEEC00A10EE100A00B287
:101CD000914908808E48B0F90000BDF90C10401AF7
:101CE0008949B1F90010084400EE100AB8EEC00AA4
:101CF000F2EE0C0A20EE200ABDEEC00A10EE100A29
:101D000000B2854948808248B0F90000BDF90C1046
:101D100008447D49B1F900100844404200EE100A21
:101D2000B8EEC00AF2EE0C0A20EE200ABDEEC00AA0
:101D300010EE100A00B2784988807548B0F90000AA
:101D4000BDF90C10401A7049B1F90010401A00EEAC
:101D5000100AB8EEC00AF2EE0C0A20EE200ABDEE20
:101D6000C00A10EE100A00B26B49C8800E206C4900
:101D700008806A480078032807D06848007802285D
:101D800003D066480078012867D16148B0F90000A7
:101D9000BDF90C1008445C49B1F90010081A00EEB6
:101DA000100AB8EEC00AF0EE000A20EE200ABDEEDE
:101DB000C00A10EE100A00B2574908805448B0F922
:101DC0000000BDF90C10401A4F49B1F90010084449
:101DD00000EE100AB8EEC00AF0EE000A20EE200A6B
:101DE000BDEEC00A10EE100A00B24B4948804848C8
:101DF000B0F90000BDF90C1008444349B1F90010D6
:101E00000844404200EE100AB8EEC00AF0EE000AA4
:101E100020EE200ABDEEC00A10EE100A00B23E49C4
:101E200088803B48B0F90000BDF90C10401A3649D3
:101E3000B1F90010401A00EE100AB8EEC00AF0EE38
:101E4000000A20EE200ABDEEC00A10EE100A00B211
:101E50003149C8800220324908803048007804287F
:101E600005D100202C49088048808880C8802D48F2
:101E7000B0F904202848B0F900104FF47A532A48EA
:101E800002F0F2FD294908802648B0F914202248C2
:101E9000B0F902104FF47A53254802F0E5FD2349CA
:101EA00048802048B0F924201B48B0F904104FF4B2
:101EB0007A53204802F0D8FD1C4988801948B0F9AF
:101EC00034201548B0F906104FF47A531A4802F03E
:101ED000CBFD1649C8800E200B460A4600900846E6
:101EE00001F0D4F9114CB4F90630B4F90420B4F976
:101EF0000210B4F90000FEF763FF1FBDC40100200B
:101F0000C6010020B0010020C0010020A001002077
:101F1000C2010020FC00002078010020FD0000200C
:101F2000C801002050390120E03301208001002049
:101F300010340120403401207034012010B52DED03
:101F40000C8B9748406800EE100AB5EEC00AF1EE1F
:101F500010FA08D19248006800EE100AB5EEC00AE7
:101F6000F1EE10FA7ED09FED8F0A8F4880ED000AC7
:101F70008B4841680846FEF7CDFA41EC190B8B48B7
:101F8000D0ED000A9FED8A1A80EE810ADFED890A02
:101F900020EE200A10EE104A2046FEF7BBFA41EC74
:101FA0001B0BB0EE4B0AF0EE6B0A03F0EDFCB0EE4B
:101FB00040AAF0EE60AA53EC192B51EC1A0BFEF775
:101FC00026FA41EC180BFEF7B8FA7B490860744812
:101FD00041680846FEF79EFA41EC190B734890EDF4
:101FE000000A9FED731AC0EE010A9FED720A20EEFF
:101FF000800A10EE104A2046FEF78CFA41EC1C0BCA
:10200000B0EE4C0AF0EE6C0A03F022FDB0EE40BADE
:10201000F0EE60BA51EC1B0B81F0004141EC1A0B61
:1020200053EC192BFEF7F3F941EC180BFEF785FA88
:10203000624908605A48006800EE100AB5EEC00A0E
:10204000F1EE10FA77D0564801680846FEF762FABA
:1020500041EC1B0B5548D0ED000A9FED551A80EE60
:10206000810A00E068E0DFED530A20EE200A10EE5E
:10207000104A2046FEF74EFA41EC1D0BB0EE4D0A19
:10208000F0EE6D0A03F0E4FCB0EE40CAF0EE60CA78
:1020900053EC1B2B51EC1C0BFEF7B9F941EC190B5F
:1020A00045480068FEF736FA41EC1A0B53EC192B41
:1020B000FEF706F941EC180BFEF73FFA3E490860BF
:1020C000374801680846FEF725FA41EC1B0B3748F4
:1020D000D0ED000A9FED361A80EE810ADFED350A59
:1020E00020EE200A10EE104A2046FEF713FA41ECCB
:1020F0001D0BB0EE4D0AF0EE6D0A03F045FCB0EE9C
:1021000040CAF0EE60CA53EC1B2B51EC1C0BFEF7DF
:102110007EF941EC190B29480068FEF7FBF941EC08
:102120001A0B53EC192BFEF7CBF841EC180BFEF70A
:1021300004FA224908600EE09FED210A1A4880ED5A
:10214000000A9FED200A1D4880ED000A9FED1D0A40
:10215000194880ED000A184A92ED000AF0EE000AD4
:1021600020EE200ABDEEC00A10EE102A11B2134A6A
:1021700092ED000AF0EE000A20EE200ABDEEC00A41
:1021800010EE102A10B2084A92ED000ABDEEC00A05
:1021900010EE102A12B2FFF743FDBDEC0C8B10BD00
:1021A000C03901200080BB44900100207001002054
:1021B00000003443DA0F49408C01002088010020E0
:1021C0000000FA4400000000052005F0CDF818E0FA
:1021D0000C48006808B9012000E0002009490860A7
:1021E000084600680849086000F076FC074801F0DE
:1021F0000BF8074880ED000A00F03CFC022005F0D7
:10220000B3F8E5E76C01002088024342A0390120C1
:102210007001002010B52DED0C8BFE4890ED000AEA
:10222000F3EE040AB4EEE00AF1EE10FA07DDFA4824
:102230000088012803D10020F74908800FE0F54805
:1022400090ED000AFBEE040AB4EEE00AF1EE10FA9B
:1022500005D2F148008810B90120EF490880EE4806
:10226000008800287DD1ED48B0F9000040F2A4615B
:10227000884205DCE9480088143000B2E74908804C
:10228000E648B0F9000000EE100AB8EEC00AE448D3
:1022900080ED000AE348406800EE100AB5EEC00A7F
:1022A000F1EE10FA08D1DF48006800EE100AB5EE32
:1022B000C00AF1EE10FA7DD0DA4841680846FEF710
:1022C00029F941EC190BD34890ED000A9FEDD61A7D
:1022D000C0EE010A9FEDD50A20EE800A10EE104AEA
:1022E0002046FEF717F941EC1B0BB0EE4B0AF0EE5F
:1022F0006B0A03F049FBB0EE40AAF0EE60AA53EC83
:10230000192B51EC1A0BFEF782F841EC180BFEF773
:1023100014F9C7490860C34841680846FEF7FAF84F
:1023200041EC190BBB48D0ED000A9FEDBF1A80EEBF
:10233000810ADFEDBE0A20EE200A10EE104A204688
:10234000FEF7E8F841EC1C0BB0EE4C0AF0EE6C0A1C
:1023500003F07EFBB0EE40BAF0EE60BA51EC1B0B1E
:1023600000E09AE081F0004141EC1A0B53EC192B8C
:10237000FEF74DF841EC180BFEF7DFF8AD490860A9
:10238000A848006800EE100AB5EEC00AF1EE10FA97
:1023900077D0A44801680846FEF7BCF841EC1B0B57
:1023A0009C48D0ED000A9FEDA01A80EE810ADFED77
:1023B0009F0A00E066E020EE200A10EE104A204658
:1023C000FEF7A8F841EC1D0BB0EE4D0AF0EE6D0AD9
:1023D00003F03EFBB0EE40CAF0EE60CA53EC1B2B9C
:1023E00051EC1C0BFEF713F841EC190B90480068F8
:1023F000FEF790F841EC1A0B53EC192BFDF760FF38
:1024000041EC180BFEF799F8894908608548016886
:102410000846FEF77FF841EC1B0B7E48D0ED000A22
:102420009FED811A80EE810ADFED800A20EE200AFE
:1024300010EE104A2046FEF76DF841EC1D0BB0EE91
:102440004D0AF0EE6D0A03F09FFAB0EE40CAF0EECE
:1024500060CA53EC1B2B51EC1C0BFDF7D8FF41EC71
:10246000190B74480068FEF755F841EC1A0B53EC51
:10247000192BFDF725FF41EC180BFEF75EF86D49AF
:1024800008604FE19FED6C0A6A4880ED000A9FEDFD
:102490006A0A674880ED000A44E15F480088012825
:1024A0007ED15E48B0F900006449884205DB5B4894
:1024B0000088143800B2594908805848B0F9000023
:1024C00000EE100AB8EEC00A554880ED000A5548E3
:1024D000406800EE100AB5EEC00AF1EE10FA08D11D
:1024E0005048006800EE100AB5EEC00AF1EE10FA8E
:1024F0007BD04C4841680846FEF70CF841EC190BBC
:102500004448D0ED000A9FED481A80EE810ADFEDC5
:10251000470A20EE200A10EE104A2046FDF7FAFF87
:1025200041EC1B0BB0EE4B0AF0EE6B0A03F02CFAF9
:10253000B0EE40AAF0EE60AA53EC192B51EC1A0B46
:10254000FDF765FF41EC180BFDF7F7FF3849086010
:10255000344841680846FDF7DDFF41EC190B2D4872
:10256000D0ED000A9FED301A80EE810ADFED2F0AD0
:1025700020EE200A10EE104A2046FDF7CBFF41EC7A
:102580001C0BB0EE4C0AF0EE6C0A03F061FAB0EEF0
:1025900040BAF0EE60BA51EC1B0B81F0004100E054
:1025A000B1E041EC1A0B53EC192BFDF730FF41EC75
:1025B000180BFDF7C2FF1F4908601A48006800EEBB
:1025C000100AB5EEC00AF1EE10FA7DD01548016888
:1025D0000846FDF79FFF41EC1B0B0E4890ED000AEB
:1025E000DFED110A80EE201A00E081E09FED0F0A76
:1025F00021EE000A10EE104A2046FDF78BFF41EC59
:102600001D0BB0EE4D0AF0EE6D0A03F021FAB0EEAC
:1026100040CA15E070010020980100209A010020B6
:1026200090010020C039012000003443DA0F4940F6
:102630008C01002088010020000000005CF9FFFFF1
:10264000F0EE60CA53EC1B2B51EC1C0BFDF7DFFEC8
:1026500041EC190B46480068FDF75CFF41EC1A0B92
:1026600053EC192BFDF72CFE41EC180BFDF765FF21
:102670003F4908603F4801680846FDF74BFF41ECC1
:102680001B0B3D48D0ED000A1FED191A80EE810AA0
:102690005FED1A0A20EE200A10EE104A2046FDF7E0
:1026A00039FF41EC1D0BB0EE4D0AF0EE6D0A03F060
:1026B0006BF9B0EE40CAF0EE60CA53EC1B2B51EC44
:1026C0001C0BFDF7A4FE00E02CE041EC190B2B489D
:1026D0000068FDF71FFF41EC1A0B53EC192BFDF7B7
:1026E000EFFD41EC180BFDF728FF2449086019E0C5
:1026F0001FED2F0A214880ED000A1FED310A1C480A
:1027000080ED000A0EE01FED340A1C4880ED000A3F
:102710001FED370A164880ED000A1FED390A1848E8
:1027200080ED000A124A92ED000AF0EE000A20EE57
:10273000200ABDEEC00A10EE102A11B20F4A92ED27
:10274000000AF0EE000A20EE200ABDEEC00A10EEEC
:10275000102A10B20A4A92ED000ABDEEC00A10EE2D
:10276000102A12B2FFF75CFABDEC0C8B10BD000012
:102770008C010020C0390120700100208801002058
:10278000900100207CB504460D4616462088B649C7
:102790000988401A00B2ADF800002888B24949887B
:1027A000401A00B2ADF802003088AF498988401A5B
:1027B00000B2ADF80400AD48407A01287ED1BDF9E1
:1027C000000000EE900AF8EEE00AB0EE600A03F0B6
:1027D000CDFDF1EE060AB4EEE00AF1EE10FA22DDCC
:1027E000BDF9000000EE900AF8EEE00AB0EE600AD3
:1027F00003F0BCFDBDF9000000EE900AB8EEE01A4F
:10280000C1EE000A9848B0F9000000EE100AB8EED8
:10281000C00AB1EE061A00EE810ABDEEC00A10EE43
:10282000100A00B22080BDF9020000EE900AF8EE16
:10283000E00AB0EE600A03F099FDF0EE0C0AB4EE87
:10284000E00AF1EE10FA22DDBDF9020000EE900A76
:10285000F8EEE00AB0EE600A03F088FDBDF9020070
:1028600000EE900AB8EEE01AC1EE000A7E48B0F918
:10287000020000EE100AB8EEC00AB0EE0C1A00EE2C
:10288000810ABDEEC00A10EE100A00B22880784816
:102890000078022803D076480078032835D1BDF9A6
:1028A000040000EE900AF8EEE00AB0EE600A03F0D1
:1028B0005DFDF3EE030AB4EEE00A00E025E0F1EE80
:1028C00010FA22DDBDF9040000EE900AF8EEE00AED
:1028D000B0EE600A03F04AFDBDF9040000EE900A74
:1028E000B8EEE01AC1EE000A5F48B0F9040000EE4D
:1028F000100AB8EEC00AB3EE031A00EE810ABDEE6C
:10290000C00A10EE100A00B230805848407A0328FE
:102910007DD1BDF9000000EE900AF8EEE00AB0EEBD
:10292000600A03F023FDF1EE060AB4EEE00AF1EED0
:1029300010FA22DDBDF9000000EE900AF8EEE00A80
:10294000B0EE600A03F012FDBDF9000000EE900A3F
:10295000B8EEE01AC1EE000A4348B0F9000000EEFC
:10296000100AB8EEC00AB1EE061A00EE810ABDEEFA
:10297000C00A10EE100A00B22080BDF9020000EE7D
:10298000900AF8EEE00AB0EE600A03F0EFFCF0EE19
:102990000C0AB4EEE00AF1EE10FA22DDBDF90200F5
:1029A00000EE900AF8EEE00AB0EE600A03F0DEFCFA
:1029B000BDF9020000EE900AB8EEE01AC1EE000A7E
:1029C0002948B0F9020000EE100AB8EEC00AB0EED5
:1029D0000C1A00EE810ABDEEC00A10EE100A00B219
:1029E000288023480078022835D1BDF9040000EE84
:1029F000900AF8EEE00AB0EE600A03F0B7FCF3EEDE
:102A0000030AB4EEE00AF1EE10FA24DD00E022E061
:102A1000BDF9040000EE900AF8EEE00AB0EE600A9C
:102A200003F0A4FCBDF9040000EE900AB8EEE01A31
:102A3000C1EE000A0C48B0F9040000EE100AB8EE2E
:102A4000C00AB3EE031A00EE810ABDEEC00A10EE12
:102A5000100A00B230802088034908802888488006
:102A6000308888807CBD0000CA010020C533012069
:102A7000FD00002010B515480068012818D1144940
:102A800008701448007808B9FEF770FF1148007804
:102A9000022801D1FFF7BEFB0E480078032801D1C0
:102AA000FFF74CFA0B480078012801D1FEF79EFF92
:102AB00008480078042802D00448006820B90022A1
:102AC00011461046FFF7ACF810BD000028010020A9
:102AD000FC000020FD00002010B5104800780628FA
:102AE0001BD00F48006878B90E48407A032806D1F9
:102AF0000C48007A032802D1FEF7ACFA01E0FEF799
:102B0000FDFA01200649086005480068012804D143
:102B1000FEF748FB00200249086010BDFC000020C1
:102B200074010020C53301200246002002EA01039F
:102B30000BB1012000E00020704710B501FB02F34B
:102B400003EBD374B0EB640F01DD01FB120001FB5A
:102B500002F4634203EBD374B0EB640F02DA01FBBF
:102B600002F3181A10BD000010B50020002100BFAC
:102B700008E0134A32F81030421E114C24F812308B
:102B8000421CD0B20528F4DB0E4A12780AB90122A1
:102B900000E000220A4B1A81002006E0084A32F8C1
:102BA00010200A4491B2421CD0B20528F6DB05225F
:102BB00091FBF2F291B211B90022034BDA6010BD21
:102BC000E03901201C010020A039012010B508497E
:102BD000084800F00BF9012809D10549054800F023
:102BE0000BF80349034800F021F800F095FA10BDF6
:102BF00000880020886402400246094B9A4201D2B4
:102C0000084801E00648103801F000531BB1064B9C
:102C10000B40C36002E0044B0B4083607047000030
:102C200010640240006002407D0F7D0F0246094B98
:102C30009A4201D2084801E00648103801F00053DA
:102C40001BB1064B0B40C36002E0044B0B4083609A
:102C50007047000010640240006002407D0F7D0F4D
:102C600021B1026842F00102026003E0026822F032
:102C70000102026070470000016821F0010101605B
:102C80000021016041608160C160016121214161D9
:102C90004A49884204D13D21484A103A91608CE06B
:102CA00046491831884205D14FF47461434A103ABD
:102CB000916082E041493031884205D14FF474116E
:102CC0003E4A103A916078E03C494831884205D14B
:102CD0004FF07461394A103A91606EE037496031C3
:102CE000884204D13649354A103AD16065E033490B
:102CF0007831884204D13349304A103AD1605CE0DF
:102D00002E499031884204D12F492C4A103AD16083
:102D100053E02A49A831884205D14FF03D51274A56
:102D2000103AD16049E02949884204D13D21274A1F
:102D3000083A116041E025491831884205D14FF425
:102D40007461224A083A116037E0204930318842E4
:102D500005D14FF474111D4A083A11602DE01B494A
:102D60004831884205D14FF07461184A083A116021
:102D700023E016496031884204D11149134A121FD9
:102D800011601AE011497831884204D10D490F4A87
:102D9000121F116011E00D499031884204D10A4997
:102DA0000A4A121F116008E00849A831884204D17C
:102DB0004FF03D51054A121F1160704710600240EC
:102DC0003D000020400F002000003D201064024024
:102DD000014600200A6802F001020AB1012000E069
:102DE000002070470146486880B2704730B50346FE
:102DF0000A46002000240B4DAB4201D20A4901E0F3
:102E00000849103902F000550DB14C6800E00C681B
:102E1000064D2C4004EA02050DB1012000E000201F
:102E200030BD000010640240006002407D0F7D0F45
:102E300010B501F080034BB122B1436943F0800328
:102E4000436103E0436923F08003436180290BD091
:102E50002AB1036801F01E042343036004E0036801
:102E600001F01E04A343036010BD000010B5002252
:102E70000268134B1A40CC680B6823434C69234308
:102E80008C692343CC6923430C6A23434C6A234354
:102E90008C6A23434C6B23438C6B23431A4302609D
:102EA000426922F00702D1E90B3423431A434261FD
:102EB0000B6943604B6883608B68C36010BD000082
:102EC0003F801CF0416070477047000010B53548E6
:102ED0000078062802D03348007858B94FF47A7049
:102EE00031490860091F0860002211461046FDF7AD
:102EF000ADFF4FE02D480078022842D02B480078E3
:102F000028B940F21E5028490860091F0860274868
:102F10000078012805D140F21E5023490860091F9E
:102F200008602348007801280BD12248B0F904201A
:102F300042F21C530021204801F096FD1F490880F1
:102F400028E01B48007860B91A48B0F9042042F222
:102F50001C5340F6B831184801F086FD1749088027
:102F600018E013480078022814D11248B0F9042060
:102F700042F21C531249104801F076FD0F490880B7
:102F800008E04FF47A7008490860091F08600020C3
:102F90000A4908804FF47A7003490860091F0860E5
:102FA00010BD0000FC000020380C0040FF00002095
:102FB000FE000020B039012020390120D40100207A
:102FC00048F4FFFF052004F0CFF910E0084800683E
:102FD00008B9012000E000200549086008460068A3
:102FE00004490860FFF772FF022004F0BDF9EDE725
:102FF000D001002090024342F0EE400A10EE901AF9
:103000000160016800EE101AC16801EE101A20EE8E
:10301000010A01EE101AF7EE001A71EEC11A4168AA
:1030200001EE101A01EE810A10EE101A816081681B
:103030004160816800EE101A7047F0B50A46002121
:103040000023002400BF3DE0012505FA01F31568C7
:1030500005EA03049C4234D105684F000326BE40B4
:10306000B543056015794E00B540066835430560E7
:103070001579012D02D01579022D16D185684F00E2
:103080000326BE40B543856055794E00B54086683D
:1030900035438560456801268E40B54345604568E7
:1030A00096798E40B6B235434560C5684F00032619
:1030B000BE40B543C560D5794E00B540C6683543BE
:1030C000C560491C1029BFD3F0BDF0B50023002412
:1030D0004D07ED0E02FA05F3CE1000F1200555F86C
:1030E00026504E07F70E0F26BE40B543CF1000F115
:1030F000200646F82750CE1000F1200555F826503E
:1031000045EA0304CE1000F1200545F82640F0BD45
:10311000418370470183704701203849487038481F
:1031200000783749497840EA0120C0F30A00354960
:10313000088033484078C0103149897840EA41100E
:10314000C0F30A002F4948802D48807880112C490F
:10315000C97840EA81002A49097940EA8120C0F310
:103160000A00284988802648007940102449497976
:1031700040EAC110C0F30A002249C88020484079C3
:103180000011800808721E484079C0F3011048728F
:103190001B4880791A49C97940EA012000B21949CF
:1031A00088811748007A1649497A40EA012001B21D
:1031B0001448C1811248807A1149C97A40EA012035
:1031C00001B2104801820E48017B0E4801750C487F
:1031D000417B0C4841750A48807B0949C97B40EA1C
:1031E00001200849C8820648007C0549497C40EA1C
:1031F0000120C0F30A00034948817047D80100202C
:10320000AC330120C53301204FF4B472C16851437F
:103210004FF4E42291FBF2F100EE101AB8EEC00A6E
:10322000024981ED000A91ED000A7047D0000020AC
:1032300010B5FFF799FC0549B1F902000449B1F94D
:1032400000200021FDF702FE10BD00001401002047
:10325000D4010020012004F087F810E0084800683D
:1032600008B9012000E00020054908600846006810
:1032700004490860FFF7DCFF022004F075F8EDE771
:103280000C0100208C02434200BFFEE72DE9F0470D
:1032900004460D4616461F46DDF82080B7F900109B
:1032A000B6F9000003F0ECF88246B5F9000051468B
:1032B00003F0E6F88146B4F90000494603F0E0F86F
:1032C00035490880B8F1000F05D1002038803080E2
:1032D000288020805DE008EB481000EB80002E493C
:1032E000B1F90010B1EB800F53DD4FF4257008FBEE
:1032F00000F02949B1F9001091FBF0F000EE100A3E
:10330000B8EEC00A254880ED000AB4F9000000EECE
:10331000100AB8EEC00A2148D0ED000A80EE201A4B
:10332000BDEEC10A10EE100A00B22080B5F900000F
:1033300000EE100AB8EEC00A1848D0ED000A80EE80
:10334000201ABDEEC10A10EE100A00B22880B6F9AC
:10335000000000EE100AB8EEC00A1048D0ED000AD6
:1033600080EE201ABDEEC10A10EE100A00B23080C5
:10337000B7F9000000EE100AB8EEC00A0748D0ED19
:10338000000A80EE201ABDEEC10A10EE100A00B24B
:103390003880BDE8F0870000C4000020C80000208D
:1033A0001CB50121102001F0A7F80121022001F035
:1033B000A3F80420009001208DF8040000208DF86F
:1033C000060003208DF8050001208DF807006946EE
:1033D0003A48FFF732FE0820009001208DF80400E3
:1033E00000208DF8060003208DF8050001208DF8DF
:1033F000070069463148FFF720FE102000900120A9
:103400008DF8040000208DF8060003208DF80500DB
:1034100001208DF8070069462848FFF70EFE0120BD
:1034200000908DF8040000208DF8060003208DF830
:10343000050001208DF8070069462048FFF7FDFDD3
:103440000220009001208DF8040000208DF8060075
:1034500003208DF8050001208DF807006946174804
:10346000FFF7EBFD8020009001208DF80400002084
:103470008DF8060003208DF8050001208DF8070067
:1034800069460F48FFF7D9FD04210C48FFF742FEBB
:1034900008210A48FFF73EFE10210848FFF73AFED0
:1034A00001210648FFF736FE02210448FFF732FEED
:1034B00080210348FFF72EFE1CBD000000100240D3
:1034C000000402401CB50121084601F015F84FF434
:1034D0008050009001208DF8040000208DF8060037
:1034E00003208DF8050001208DF807006946024889
:1034F000FFF7A3FD1CBD00000000024010B54FF413
:1035000080510248FFF706FE10BD00000000024097
:1035100010B52DED028B0446B0EE408A94ED030AFF
:10352000B8EEC00A30EE480A84ED050A94ED060AAA
:10353000D4ED050A30EE200A84ED060A94ED060A61
:10354000BDEEC00A10EE100A184A514202F088FF80
:1035500000EE100AB8EEC00A84ED060A94ED050AE2
:10356000D4ED070A30EE600ABDEEC00AF0EE408AE4
:1035700094ED000AD4ED050A20EE200AD4ED010AEC
:1035800094ED061A00EE810AD4ED020AB8EEE81AAC
:1035900000EE810ABDEEC00A84ED0A0A94ED050A28
:1035A00084ED070AA06ABDEC028B10BDF0D8FFFFC6
:1035B00010B52DED088BFB48C08A00F4007080B177
:1035C000F948007880B9F948007818B90220F7491D
:1035D000087002E00020F54908700120F2490870E7
:1035E00002E00020F0490870EE48C08A00F48070C4
:1035F00080B1ED48407880B9EC48007818B90320D4
:10360000EA49087002E00020E84908700120E64914
:10361000487002E00020E4494870E248C08A00F4A3
:10362000806068B1E0488079F8B90420DF4908700B
:103630000120DF490870DF490870DB49887114E018
:10364000DB48007801280DD1DA480078042802D040
:10365000D848007830B90020D6490870D44908709D
:10366000D24908700020D0498871CE48C08A00F441
:10367000005060B1CC48007960B9CF48007810B9EB
:103680000120CD4908700120C749087102E00020DF
:10369000C5490871C348C08A00F4804068B1C24877
:1036A000407968B9C4480078012802D10020C24995
:1036B00008700120BC49487102E00020BA494871F5
:1036C000B848C08A00F48050C8B1B748807890B933
:1036D000BA48007830B90420B44908700220B749CC
:1036E000087008E0B5480078022804D10020B349EA
:1036F0000870AE4908700120AB49887002E00020D4
:10370000A9498870A748407D012805D1AB490870B8
:103710000220AB49087009E0A8480078012805D1CB
:103720000020A64908700120A54908709D48007D29
:10373000012805D1A34908700020A349087015E0AD
:103740009848C08A00F4006030B101209D4908709B
:1037500002209D49087009E09A480078012805D1A7
:103760000020984908700120974908708D48807D95
:1037700000F0010018B38B48807D00F0100030B1DC
:103780009FED920A10EE100A914948604AE0914874
:10379000B0F90000B0F5967F05DC8E480088401C2B
:1037A00000B28C4908808B48B0F9000000EE100A86
:1037B000B8EEC00A10EE100A8549486032E0794838
:1037C000807D00F0020020B37648807D00F010007C
:1037D00030B19FED810A10EE100A7D49486021E06A
:1037E0007C48B0F90000B0F5967F05DC7948008888
:1037F000401C00B2774908807648B0F9000040428A
:1038000000EE100AB8EEC00A10EE100A70494860C7
:1038100008E064206F4908809FED700A10EE100ADE
:103820006B4948605F48807D00F0040020B35D482C
:10383000807D00F0100030B19FED670A10EE100A95
:10384000634908604AE06648B0F90000B0F5967F29
:1038500005DC63480088401C00B26149088060486C
:10386000B0F90000404200EE100AB8EEC00A10EEB7
:10387000100A5749086031E04A48807D00F008008E
:1038800018B34848807D00F0100030B19FED4F0A1A
:1038900010EE100A4E49086020E05148B0F90000CF
:1038A000B0F5967F05DC4E480088401C00B24C49BC
:1038B00008804B48B0F9000000EE100AB8EEC00ACC
:1038C00010EE100A4249086008E06420444908806C
:1038D0009FED420A10EE100A3D4908603848007812
:1038E000012840D12F49B1F90C00FCF702FE41EC50
:1038F0001B0B9FED3C0B53EC102BFCF788FD41ECB0
:10390000190B334881680846FCF704FE41EC1A0B9A
:1039100053EC192BFCF7D4FC41EC180BFCF70DFE13
:103920002B4988601F49B1F90E00FCF7E2FD41EC1C
:103930001B0B9FED2E0B53EC102BFCF768FD41EC9D
:10394000190B2348C1680846FCF7E4FD41EC1A0B4B
:1039500053EC192BFCF755FD41EC180BFCF7EDFD72
:103960001B49C8601AE01648007802280BD19FED69
:103970001B0A10EE100A164988609FED180A10EE17
:10398000100AC8600AE09FED150A10EE100A1049EF
:1039900088609FED120A10EE100AC860BDEC088B1B
:1039A00010BD0000C5330120D4390120FD000020E6
:1039B0000501002030010020FF000020060100204A
:1039C000FC00002007010020FE000020000016443B
:1039D000C039012008010020000016C400000000CA
:1039E0000A010020E9263108AC1CAA3FEC51B81EA0
:1039F00085EBC13F00BFFEE770B504460E46154695
:103A0000208920B9208800B2E0800120208121880F
:103A1000E288891A08B22946FCF748FFE1680844A1
:103A2000E0602A463146E068FFF787F8E0602088CA
:103A300000B2E08070BD704770B5002100230F22F6
:103A4000C4781CB3174C246804F4E064C4F5E06443
:103A5000C4F30721C1F10404E3B20A4144789C4055
:103A6000E1B28478144021430C07210E0E4C0578F6
:103A70006155047804F01F050124AC4005786D11F0
:103A8000AD0005F1E025C5F8004109E0047804F037
:103A90001F050124AC40054D0678761145F82640F7
:103AA00070BD00000CED00E000E400E080E100E00B
:103AB00002490143024A1160704700000000FA0504
:103AC0000CED00E0B7EE000AFE4880ED000A9FED25
:103AD000FE0A80ED010A9FEDFC0A80ED020A9FEDCF
:103AE000FA0A80ED050A9FEDF80A80ED060A9FEDBF
:103AF000F60A80ED070A0020F24988629FEDF20A7B
:103B0000084680ED080A0020C860B7EE000AEF48BA
:103B100080ED000A9FEDEC0A80ED010A9FEDEC0AB2
:103B200080ED020A9FEDE80A80ED050A9FEDE60AA6
:103B300080ED060A9FEDE40A80ED070A0020E349C4
:103B400088629FEDE10A084680ED080A0020C860FF
:103B5000B7EE000ADF4880ED000A9FEDDB0A80ED3A
:103B6000010A9FEDD90A80ED020A9FEDD70A80ED88
:103B7000050A9FEDD50A80ED060A9FEDD30A80ED78
:103B8000070A0020D34988629FEDCF0A084680EDDE
:103B9000080A0020C860B7EE000ACF4880ED000A8E
:103BA0009FEDC90A80ED010A9FEDC70A80ED020A68
:103BB0009FEDC50A80ED050A9FEDC30A80ED060A58
:103BC0009FEDC10A80ED070A0020C34988629FED7E
:103BD000BE0A084680ED080A0020C860B2EE030A5B
:103BE000BE4880ED000A9FEDB80A80ED010A9FED06
:103BF000B80A80ED020A9FEDB40A80ED050A9FED38
:103C0000B20A80ED060A9FEDB00A80ED070A002097
:103C1000B24988629FEDAC0A084680ED080A002090
:103C2000C860B2EE030AAE4880ED000A9FEDA60A16
:103C300080ED010A9FEDA60A80ED020A9FEDA20A1F
:103C400080ED050A9FEDA00A80ED060A9FED9E0A11
:103C500080ED070A0020A24988629FED9B0A084672
:103C600080ED080A0020C860B2EE030A9D4880ED8E
:103C7000000A9FED950A80ED010A9FED950A80EDFF
:103C8000020A9FED910A80ED050A9FED8F0A80EDF3
:103C9000060A9FED8D0A80ED070A0020914988628F
:103CA0009FED890A084680ED080A0020C860B2EE40
:103CB000030A8D4880ED000A9FED830A80ED010A1A
:103CC0009FED830A80ED020A9FED7F0A80ED050AD1
:103CD0009FED7D0A80ED060A9FED7B0A80ED070AC5
:103CE0000020814988629FED780A084680ED080A25
:103CF0000020C8609FED7D0A7D4880ED000A9FEDA1
:103D0000720A80ED010A9FED7B0A80ED020A9FEDA9
:103D10006E0A80ED050A9FED6C0A80ED060A9FEDA4
:103D20006A0A80ED070A9FED680A80ED080A002004
:103D30006F49888488629FED640A084680ED0B0A0B
:103D40000020C8609FED6C0A6C4880ED000A9FED72
:103D50005E0A80ED010A9FED5C0A80ED020A9FED8C
:103D60005A0A80ED050A9FED580A80ED060A9FED7C
:103D7000560A80ED070A9FED540A80ED080A0020DC
:103D80005E49888488629FED500A084680ED0B0AE0
:103D90000020C860B2EE080A594880ED000A9FED85
:103DA0004A0A80ED010A9FED480A80ED020A9FED64
:103DB000460A80ED050A9FED440A80ED060A9FED54
:103DC000420A80ED070A00204D4988629FED3E0AB5
:103DD000084680ED080A0020C8609FED4A0A4A485C
:103DE00080ED000A9FED380A80ED010A9FED470A39
:103DF00080ED020A9FED340A80ED050A9FED320A3C
:103E000080ED060A9FED300A80ED070A00203E494A
:103E1000888488629FED2C0A084680ED0B0A0020FA
:103E2000C860B7EE080A3A4880ED000A9FED260AFE
:103E300080ED010A9FED240A80ED020A9FED220A1F
:103E400080ED050A9FED200A80ED060A9FED1E0A0F
:103E500080ED070A9FED1C0A80ED080A00202C491E
:103E6000888488629FED180A084680ED0B0A0020BE
:103E7000C8609FED280A284880ED000A9FED120ACD
:103E800080ED010A9FED100A80ED020A9FED0E0AF7
:103E900080ED050A9FED0C0A80ED060A9FED0A0AE7
:103EA00080ED070A00201C49888488629FED060A7D
:103EB000084680ED0B0A0020C860B2EE000A1748E1
:103EC0002EE00000A034012000000000D0340120CA
:103ED000CDCC4C3E0035012030350120E0330120AF
:103EE0001034012040340120703401209A99993E09
:103EF000603501206210983E6666E64090350120EC
:103F00002039012000002043C03501200000C842B4
:103F1000F0350120000016432036012050360120E4
:103F200080ED000A1FED180A80ED010A1FED1A0A44
:103F300080ED020A1FED1C0A80ED050A1FED1E0A26
:103F400080ED060A1FED200A80ED070A1FED220A08
:103F500080ED080A0020FE49888488621FED260A49
:103F6000084680ED0B0A0020C860B3EE050AF94848
:103F700080ED000A1FED2C0A80ED010A9FEDF60A84
:103F800080ED020A1FED300A80ED050A1FED320AAE
:103F900080ED060A1FED340A80ED070A0020ED4986
:103FA000888488621FED380A084680ED0B0A0020DD
:103FB000C860B2EE050AE94880ED000A1FED3E0A2E
:103FC00080ED010A1FED400A80ED020A1FED420A52
:103FD00080ED050A1FED440A80ED060A1FED460A32
:103FE00080ED070A1FED480A80ED080A0020DB4932
:103FF000888488621FED4C0A084680ED0B0A002079
:10400000C8609FEDD70AD74880ED000A1FED520A1D
:1040100080ED010A1FED540A80ED020A1FED560AD9
:1040200080ED050A1FED580A80ED060A1FED5A0AB9
:1040300080ED070A0020CB49888488621FED5E0A64
:10404000084680ED0B0A0020C8609FEDC70AC748EC
:1040500080ED000A1FED640A80ED010A1FED660A7B
:1040600080ED020A1FED680A80ED050A1FED6A0A5D
:1040700080ED060A1FED6C0A80ED070A1FED6E0A3F
:1040800080ED080A0020B949888488621FED720A11
:10409000084680ED0B0A0020C8609FEDB50AB548C0
:1040A00080ED000A1FED780A80ED010A9FEDAA0A53
:1040B00080ED020A1FED7C0A80ED050A1FED7E0AE5
:1040C00080ED060A1FED800A80ED070A0020A9494D
:1040D000888488621FED840A084680ED0B0A002060
:1040E000C860B2EE040AA44880ED000A1FED8A0AF7
:1040F00080ED010A1FED8C0A80ED020A1FED8E0A89
:1041000080ED050A1FED900A80ED060A1FED920A68
:1041100080ED070A1FED940A80ED080A00209649F9
:10412000888488621FED980A084680ED0B0A0020FB
:10413000C8609FED920A924880ED000A1FED9E0A2A
:1041400080ED010A9FED8F0A80ED020A1FEDA20AA1
:1041500080ED050A1FEDA40A80ED060A1FEDA60AF0
:1041600080ED070A00208649888488621FEDAA0A2C
:10417000084680ED0B0A0020C860B1EE0A0A8248AA
:1041800080ED000A1FEDB00A80ED010A1FEDB20AB2
:1041900080ED020A1FEDB40A80ED050A1FEDB60A94
:1041A00080ED060A1FEDB80A80ED070A1FEDBA0A76
:1041B00080ED080A00207449888488621FEDBE0AD9
:1041C000084680ED0B0A0020C8609FED700A704819
:1041D00080ED000A1FEDC40A80ED010A1FEDC40A3C
:1041E00080ED020A1FEDC80A80ED050A1FEDCA0A1C
:1041F00080ED060A1FEDCC0A80ED070A0020644915
:10420000888488621FEDD00A084680ED0B0A0020E2
:10421000C860B3EE070A5F4880ED000A1FEDD60ABA
:1042200080ED010A1FEDD80A80ED020A1FEDDA0ABF
:1042300080ED050A1FEDDC0A80ED060A1FEDDE0A9F
:1042400080ED070A1FEDE00A80ED080A00205149C1
:10425000888488621FEDE40A084680ED0B0A00207E
:10426000C860B0EE000A4C4880ED000A1FEDEA0A73
:1042700080ED010A1FEDEC0A80ED020A1FEDEE0A47
:1042800080ED050A1FEDF00A80ED060A1FEDF20A27
:1042900080ED070A00204049888488621FEDF60AF5
:1042A000084680ED0B0A0020C860B2EE070A3B48C2
:1042B00080ED000A1FEDFC0A80ED010AB1EE040A50
:1042C00080ED020A9FED360A80ED050A9FED340A63
:1042D00080ED060A9FED320A80ED070A9FED300A55
:1042E00080ED080A00202D49888488629FED2C0A01
:1042F000084680ED0B0A0020C860B7EE000A294886
:1043000080ED000A9FED260A80ED010AB2EE000A58
:1043100080ED020A9FED220A80ED050A9FED200A3A
:1043200080ED060A9FED1E0A80ED070A00201D4958
:10433000888488629FED1A0A084680ED0B0A0020E7
:10434000C860B7EE000A184880ED000A2EE00000B1
:1043500050360120803601206666C842B036012002
:1043600000000243A037012066664640D037012096
:104370000000A04200380120303801200000B9427E
:10438000E0360120CDCCCC3D1037012000000042AA
:10439000403701207037012060380120903801201B
:1043A00000000000C0380120F03801201FED040A91
:1043B00080ED010A1FED060A80ED020A1FED080AD2
:1043C00080ED050A1FED0A0A80ED060A1FED0C0AB2
:1043D00080ED070A1FED0E0A80ED080A002005494E
:1043E000888488621FED120A084680ED0B0A0020BF
:1043F000C8607047F03801203A490988002970D018
:10440000002067E03849095CFE2961D1364A00F195
:104410000D01515CEE295BD111468978527841EA51
:10442000022109B200EE101AB8EEC00ADFED2F0A21
:1044300080EE201A2E4981ED001A2B4909792A4A6B
:10444000D27841EA022109B200EE101AB8EEC00A91
:10445000DFED260A80EE201A254981ED011A224956
:104460008979214A527941EA022109B200EE101AF3
:10447000B8EEC00ADFED1D0A80EE201A1C4981ED5E
:10448000021A1949097A184AD27941EA022109B275
:1044900000EE101AB8EEC00ADFED140A80EE201A02
:1044A000134981ED031A91ED000A30EE000AD1EDB7
:1044B000000A30EE200AD1ED000A30EE200AF3EEB9
:1044C000080A20EE200A81ED040A00F10D0188B2ED
:1044D000411C88B207490988884293DB0021014AC0
:1044E000118070479C0000203F33012000401C4693
:1044F000983301209E00002029B1064A1268024329
:10450000044B1A6004E0034A12688243014B1A60AC
:10451000704700003038024029B1064A1268024351
:10452000044B1A6004E0034A12688243014B1A608C
:10453000704700004038024029B1064A1268024321
:10454000044B1A6004E0034A12688243014B1A606C
:10455000704700002038024029B1064A1268024321
:10456000044B1A6004E0034A12688243014B1A604C
:10457000704700004438024029B1064A12680243DD
:10458000044B1A6004E0034A12688243014B1A602C
:104590007047000024380240F0B5002100220024BA
:1045A000022500260223324F3F6807F00C0121B19B
:1045B000042905D0082937D105E02E4F076036E0E1
:1045C0002D4F076033E02A4F3F1F3F68C7F38056E7
:1045D000274F3F1F3F6807F03F036EB1264FB7FBE1
:1045E000F3F7DFF88CC0ACF1040CDCF800C0CCF3BE
:1045F000881C07FB0CF40CE01E4FB7FBF3F7DFF849
:1046000070C0ACF1040CDCF800C0CCF3881C07FBD4
:104610000CF4174F3F1F3F68C7F301477F1C7D0015
:10462000B4FBF5F7076002E0124F076000BF00BF60
:104630000F4F3F6807F0F0010909104F7A5C0768D7
:10464000D74047600A4F3F6807F4E051890A0B4F93
:104650007A5C4768D7408760054F3F6807F4604140
:10466000490B064F7A5C4768D740C760F0BD000031
:10467000083802400024F40040787D011400002036
:1046800010B52DED088B8948B0F90000B0F5AF7F6B
:1046900027DB8648B0F9000040F2A461884220DCA4
:1046A0008248B0F90200B0F5AF7F1ADB7F48B0F95D
:1046B0000200884215DC7D48B0F90400B0F5AF7FF8
:1046C0000FDB7A48B0F9040088420ADC7748B0F979
:1046D0000600B0F5AF7F04DB7448B0F906008842ED
:1046E00006DD4FF480607149C8808880488008806A
:1046F0006E49B1F90010A1F58060002801DB014688
:1047000000E041420A2903DA4FF4806067490880DB
:104710006649B1F90210A1F58060002801DB01466D
:1047200000E041420A2903DA4FF480605F49488083
:104730005E49B1F90410A1F58060002801DB014653
:1047400000E041420A2903DA4FF48060574988802B
:104750005649B1F90610A1F58060002801DB014639
:1047600000E041420A2903DA4FF480604F49C880D3
:104770004F480078012869D14C48B0F90000A0F5F5
:10478000806000EE100AB8EEC00A10EE100A494927
:1047900008604648B0F90200A0F5806000EE100AFB
:1047A000B8EEC00A10EE100A48604049B1F9041092
:1047B000A1F58060FBF79DFE41EC1B0B9FED3E0BCE
:1047C00053EC102BFBF723FE41EC190B39488168A1
:1047D0000846FBF79FFE41EC1A0B53EC192BFBF735
:1047E0006FFD41EC180BFBF7A8FE324988602F499A
:1047F000B1F90610A1F58060FBF77BFE41EC1B0BC5
:104800009FED2D0B53EC102BFBF701FE41EC190B28
:104810002848C1680846FBF77DFE41EC1A0B53ECB3
:10482000192BFBF74DFD41EC180BFBF786FE2149D8
:10483000C8601E48B0F90A00A0F5806000EE100ABA
:10484000B8EEC00A10EE100A08612BE01848007894
:10485000022825D11548B0F90000A0F5806000EECF
:10486000100AB8EEC00A10EE100A124908600F488C
:10487000B0F90200A0F5806000EE100AB8EEC00AA0
:1048800010EE100A48600948B0F90A00A0F58060EF
:1048900000EE100AB8EEC00A10EE100A086101E03E
:1048A00000F0C2F8BDEC088B10BD0000C53301203C
:1048B000FC000020C0390120462575029A086B3F94
:1048C00000B597B001214548FFF716FE01211020E1
:1048D000FFF742FE07220A214148FEF7F6FB4FF49C
:1048E0008060159002208DF8580000208DF85A0045
:1048F00003208DF8590000208DF85B0015A9384879
:10490000FEF79BFB374800F0CBFE374811900020A4
:10491000ADF84800ADF84A004FF48060ADF84C00A7
:104920000420ADF84E000020ADF8500011A92D482C
:1049300000F08AFF01212B4800F09CFE012240215B
:10494000284800F0A3FE44208DF8040000208DF8D4
:1049500005008DF8060001208DF8070001A8FFF77B
:104960006BF800212148FEF77BF900BF1F48006863
:1049700000F001000028F9D11C48FEF77DF94FF046
:10498000006002901748001D039019480490002011
:10499000059012200690002007904FF48060089048
:1049A000002009900A904FF480700B904FF4403033
:1049B0000C9000200D900E900F90109002A90B48C3
:1049C000FEF754FA012210210848FEF731FA0121BE
:1049D0000648FEF745F917B000BD00000100400091
:1049E0000000024000100140A086010088640240DF
:1049F000AC330120052002F0B7FC10E00848006845
:104A000008B9012000E00020054908600846006858
:104A10000449086000F058F8072002F0A5FCEDE713
:104A200000010020840243429FED0D0A10EE100A9F
:104A30000C4908609FED0A0A10EE100A48609FEDCD
:104A4000080A10EE100A88609FED050A10EE100AA1
:104A5000C8609FED030A10EE100A0861704700005D
:104A600000000000C03901202DE9F04106460F4644
:104A700014461D46F76000EE104AB8EEC00A3046F4
:104A8000FEF746FD80466A422946404601F0E8FCB2
:104A900080460FFA88F0BDE8F08100000EE008487B
:104AA000006808B9012000E00020054908600846B8
:104AB000006804490860142002F056FCEFE700008B
:104AC000DC0100209802434210B58D48407A01284D
:104AD00064D18C480078022806D100208A490870E9
:104AE0008A490870FFF7A0FF89480078062805D199
:104AF000002087490870FFF797FF4CE08448007852
:104B0000022803D082480078032803D1012080497D
:104B1000087040E07E480078B0B3FFF7B1FD7848F8
:104B2000007A012802D10320774908707448007A7E
:104B3000032802D10020744908707148007A0228C5
:104B400001D1714908707348006900EE100ADFED69
:104B5000720AB4EEE00AF1EE10FA05DB00206F49AC
:104B600008700120694908706A48006900EE100A5F
:104B7000DFED6B0AB4EEE00AF1EE10FA05D8002082
:104B8000664908706149087005E0012063490870B2
:104B900000205E49087001205A4908705848407A40
:104BA00003287DD157480078012802D05548007865
:104BB00070B95448007810B9062055490870002093
:104BC000514908705149087056490860FFF72CFF99
:104BD0004F480078062805D100204D490870FFF79E
:104BE00023FF70E04A48007800286CD04448007ADF
:104BF00001282FD1FFF744FD03204549087001200B
:104C0000414908704348006900EE100ADFED420A8E
:104C1000B4EEE00AF1EE10FA05DB00203F4908701F
:104C200001203A4908703B48006900EE100ADFEDA8
:104C30003C0AB4EEE00AF1EE10FA05D8002037493C
:104C400008703249087005E00120344908700020DE
:104C50002E4908702A48007A02282ED1FFF710FD4D
:104C600002202B4908702B48006900EE100ADFED86
:104C70002A0AB4EEE00AF1EE10FA05DB002027491B
:104C800008700120214908702248006900EE100ACE
:104C9000DFED230AB4EEE00AF1EE10FA07D800E0E7
:104CA00014E000201D4908701849087005E0012033
:104CB0001A4908700020154908701148007A032825
:104CC00001D1FEF775FC02200E4908700C48407AAD
:104CD000022809D106200E490870002012490860F8
:104CE00008490870FFF7A0FE0548407A38B9062049
:104CF0000749087000200C490860FFF795FE10BDB9
:104D0000C533012004010020FD000020FF00002029
:104D1000FC000020C03901200000FA43FE00002002
:104D20000000FAC318010020280100200CB5002063
:104D3000019000903448006840F4803032490860A7
:104D400000BF3148006800F4003000900198401C1A
:104D50000190009818B90198B0F5A04FF1D12A48F8
:104D6000006800F4003010B10120009001E0002044
:104D700000900098012846D123484030006840F058
:104D800080502149403108602048006840F440408C
:104D90001E4908601C48083000681B49083108603B
:104DA0000846006840F4004008600846006840F487
:104DB000A05008601648091F0860081F006840F0EE
:104DC0008070091F086000BF0F48006800F0007085
:104DD0000028F9D040F205700E4908600A480830F2
:104DE000006820F0030008490831086008460068A0
:104DF00040F00200086000BF03480830006800F07F
:104E00000C000828F8D10CBD0038024000700040AA
:104E100019544007003C02401CB5054801210023FD
:104E20003222CDE9001003A1054803F01DF81CBD96
:104E3000E000002073746172745F7461736B000032
:104E4000B56F000810B500BF502080F31188BFF384
:104E50004F8FBFF36F8F00BF03F04CF818B14FF0C6
:104E600080500449086000BF002080F3118800BF13
:104E700010BD000004ED00E010B51548006840F4D6
:104E80007000134908601348006840F001001149A0
:104E9000086000200F49083108600E4800680E497C
:104EA00008400C4908600D48091D0860081F00688B
:104EB00020F48020091F0860002006490C3108609A
:104EC000FFF734FF4FF0006001498039086010BDE2
:104ED00088ED00E000380240FFFFF6FE10300024AD
:104EE00008B54FF44070FEF7E3FDFEF759FAFEF700
:104EF000E9FAFBF7EDFC00200323042207210090D0
:104F0000FBF73CFE00200323042207210090FBF75F
:104F1000DBFFFBF751FD00F007FDFFF7D1FC64203C
:104F200001F039FA592145F2762000F07DF84FF46E
:104F30007A700D490860091F086042F2CF01C7204E
:104F400000F022F805200949086000F0EFF8FEF7AC
:104F5000B9FDFBF7F5FDFBF713FD04210448FEF74F
:104F6000D7F8FEF7CBFA08BD380C00403C040040EF
:104F70000010024010B50121880700F049F9012115
:104F8000880700F036F910BD30B58BB004460D46E9
:104F900001210220FFF7C0FA01210220FFF7ACFA3D
:104FA000022200211E48FEF790F8012009900220FD
:104FB0008DF8280003208DF8290000208DF82A00A4
:104FC00002208DF82B0009A91548FEF736F8A8B283
:104FD000ADF818000020ADF81A000794ADF82000D5
:104FE00006A9104800F07AFA6020ADF8040001200C
:104FF000ADF806000020ADF8100001A9094800F046
:10500000C9F90821074800F015FA0121054800F008
:10501000E1F80121034800F0EFF80BB030BD0000CB
:10502000000402400004004030B58BB004460D4639
:1050300001210820FFF770FA01218020FFF75CFAB8
:1050400001210802FFF758FA02220A213448FEF72C
:105050003CF802220B213248FEF737F802220C21DD
:105060002F48FEF732F8022200212E48FEF72DF8D5
:1050700041F60140099002208DF8280003208DF8A8
:10508000290000208DF82A0001208DF82B0009A9A5
:105090002348FDF7D2FF09A92248FDF7CEFFA8B2A9
:1050A000ADF818000020ADF81A000794ADF8200004
:1050B00006A91D4800F012FA6020ADF80400012096
:1050C000ADF806000020ADF8100001A9164800F068
:1050D000B9F801A9144800F0FDF801A9124800F040
:1050E00059F901A9104800F0AFF908210E4800F065
:1050F000E7F808210C4800F03FF908210A4800F0C1
:1051000099F90821084800F0DBF90121064800F070
:1051100061F80121044800F06FF80BB030BD0000C9
:10512000001C024000200240000C00401FB501217D
:105130001020FFF7F1F936208DF8000001208DF8DE
:10514000010000208DF8020001208DF80300684660
:10515000FEF772FC5920ADF804000020ADF80600FF
:10516000ADF80C004FF47A70029001A9084800F0E5
:10517000B5F90121064800F03FF801221146044824
:1051800000F057F80121024800F030F81FBD000080
:105190000010004010B501210C4800F039F898B11A
:1051A00001210A4800F025F80121084800F01EF806
:1051B00007480088401C00B205490880084600885E
:1051C0000A2801D10020088010BD00000010004016
:1051D000B000002021B1028842F08002028004E089
:1051E00002884FF67F731A4002807047CA430282DA
:1051F0007047CA430282704721B1028842F001021F
:10520000028004E002884FF6FE731A400280704765
:1052100030B50246002000230024158A05EA010368
:10522000958905EA010413B10CB1012000E00020CA
:1052300030BD1AB183890B43838102E083898B439C
:105240008381704770B5002400220023058C4FF63F
:10525000FE7635400584028C8388048B4FF68F756B
:105260002C40B51E2C400D882C43751E2A408D897C
:105270002A434D882A43104DA84202D00F4DA84220
:1052800013D14FF6F7752A40CD892A434FF6FB75A7
:105290002A408D882A434FF6FF652B404FF6FF5575
:1052A0002B400D8A2B434D8A2B43838004838D68CA
:1052B0004563028470BD000000000140000401400D
:1052C0000A460021018B4FF6F77319401143018301
:1052D0007047000070B5002400220023058C4FF6B3
:1052E000EF7635400584028C8388048B48F6FF7581
:1052F0002C404FF6FF452C400D884FF6FF7606EA0E
:1053000005252C434FF6DF752A408D8906EA0515E1
:105310002A434D8806EA05152A43154DA84202D0B6
:10532000144DA8421DD14FF67F752A40CD894FF606
:10533000FF7606EA05152A434FF6BF752A408D8889
:1053400006EA05152A434FF6FF352B404FF2FF754D
:105350002B400D8A06EA85052B434D8A06EA850512
:105360002B43838004838D688563028470BD0000B5
:1053700000000140000401400A460021018B4FF269
:10538000FF7319404FF6FF7303EA022319430183A9
:105390007047000070B5002400220023058C4FF6F2
:1053A000FF6635400584028C8388848B4FF68F75A9
:1053B0002C404FF6FC752C400D882C434FF6FF55C2
:1053C0002A408D894FF6FF7606EA05252A434D8847
:1053D00006EA05252A43154DA84202D0144DA842DD
:1053E0001DD14FF2FF752A40CD894FF6FF7606EAB0
:1053F00005252A434FF6FF352A408D8806EA052504
:105400002A434EF6FF752B404DF6FF752B400D8A53
:1054100006EA05152B434D8A06EA05152B438380C2
:1054200084838D68C563028470BD00000000014064
:10543000000401400A460021818B4FF6F7731940A2
:10544000114381837047000070B5002200230024BF
:10545000058C4EF6FF7635400584038C8488828B5C
:1054600048F6FF752A404FF6FF452A400D884FF653
:10547000FF7606EA05252A434DF6FF752B408D89F8
:1054800006EA05352B434D8806EA05352B430A4DC0
:10549000A84202D0094DA84208D14BF6FF752C4016
:1054A0000D8A4FF6FF7606EA85152C4384808283A9
:1054B0008D680564038470BD000001400004014054
:1054C0000A460021818B4FF2FF7319404FF6FF739C
:1054D00003EA0223194381837047000000220288F7
:1054E000184B98420ED0184B98420BD0B0F1804F19
:1054F00008D0164B984205D0154B984202D0154B58
:10550000984204D14FF68F731A404B881A43124BBE
:10551000984207D0114B984204D04FF6FF431A40EF
:105520000B891A4302804B68C3620B880385054BC5
:10553000984202D0044B984201D18B7A0386012312
:1055400083827047000001400004014000040040D5
:1055500000080040000C0040001000400014004013
:1055600070B5002540F224411A4800F01EF90028C9
:105570002FD000211848FDF773FB00BF1648FDF738
:1055800027FC0028FAD113480088C5B21148001D35
:105590000088C5B21048FDF725FCC0F11900C5B25E
:1055A0000E480580002405E00D48005D0D490855B2
:1055B000601C84B2AC42F7DB19210748FDF782FC7E
:1055C00001210548FDF74CFB012007490880FEF743
:1055D00013FF70BD00440040886002409E00002020
:1055E000263301203F3301209C00002070B50025A8
:1055F00040F22441194800F0D8F868B30021184857
:10560000FDF72EFB00BF1648FDF7E2FB0028FAD19C
:1056100012480088C5B21148001D0088C5B2104864
:10562000FDF7E0FB4042C5B20E480580002405E0CE
:105630000D48005D0D490855601C84B2AC42F7DB93
:105640004FF480710648FDF73DFC01210448FDF749
:1056500007FB01200649088070BD0000004800409B
:10566000286002409A000020F42F0120F43101202C
:105670009800002021B1828942F40052828104E026
:1056800082894DF6FF731A40828170471AB1838A6E
:105690000B43838202E0838A8B438382704700003E
:1056A00010B504463248844208D101211020FEF78B
:1056B00063FF00211020FEF75FFF57E02D48844272
:1056C00009D101214804FEF737FF00214FF40030D3
:1056D000FEF732FF4AE02848844209D101218804BC
:1056E000FEF72AFF00214FF48020FEF725FF3DE062
:1056F0002248844209D10121C804FEF71DFF002180
:105700004FF40020FEF718FF30E01D48844209D115
:1057100001210805FEF710FF00214FF48010FEF76D
:105720000BFF23E01748844208D101212020FEF717
:1057300023FF00212020FEF71FFF17E012488442BC
:1057400009D101218807FEF7F7FE00214FF08040C4
:10575000FEF7F2FE0AE00D48844207D10121400520
:10576000FEF7EAFE00216005FEF7E6FE10BD000030
:10577000001001400044004000480040004C004040
:10578000005000400014014000780040007C0040C0
:1057900002460020B1F5007F00D100BF13880B4006
:1057A0000BB1012000E00020704770B502460024D4
:1057B00000230025002040F66A16B14200D100BF48
:1057C000C1F3421501F01F03012606FA03F3012D70
:1057D00002D19689334006E0022D02D1168A334069
:1057E00001E0968A33400C12012606FA04F416886A
:1057F000344013B10CB1012000E0002070BDF0B5C1
:105800000346002400260025002040F66A17B9420E
:1058100000D100BF1846C1F3421401F01F06012752
:1058200007FA06F5012C01D10C3004E0022C01D15D
:10583000103000E014301AB107682F43076002E00F
:105840000768AF430760F0BD2DE9FF4705460E46E8
:105850000024A14600BFA046B08900B100BF2C8A39
:1058600024F44054F08804432C82AC8941F20C604B
:105870008443B08831890843718908430443AC816B
:10588000AC8A24F44074B0890443AC826846FEF7C5
:1058900083FE2048854202D01F48854202D1DDF8B0
:1058A0000C9001E0DDF80890A88900F4004040B1B8
:1058B00009EBC90000EB091031684900B0FBF1F7B2
:1058C00007E009EBC90000EB091031688900B0FB63
:1058D000F1F76420B7FBF0F004012009642101FB1B
:1058E0001078A88900F4004040B1322000EBC800D5
:1058F000B0FBF1F000F00700044308E0322000EBB9
:1059000008106421B0FBF1F000F00F0004432C817B
:10591000BDE8FF870010014000140140C1F30802F8
:105920008280704700BFFEE71CB501210820FEF70A
:10593000E3FD4FF40050009003208DF80500002097
:105940008DF8040001208DF8070069460148FDF735
:1059500074FB1CBD000C024003B401984100009888
:1059600050EAC12018BF04204A0D18BF40F00100C2
:1059700040F2FF72B2EB515F08BF40F00200012815
:1059800008BF052002B0704710B52F499FED2C1BB2
:105990002DED020B84B0059820F000408842D8BF5E
:1059A0009DED040B2DDD2949884209D1049840B9A9
:1059B0004FF0010000F0D4FC00F0A2FC06B010BDD6
:1059C00005DB9DED040B00F08FFC06B010BD6846B2
:1059D0009DED040B00F0A0F810F0030004BF9DED56
:1059E000021B9DED000B0CD001280ED09DED021B7B
:1059F0009DED000B022817D0012000F0DDFB06B062
:105A000010BD00F0A5FA06B010BD9DED021B9DED86
:105A1000000B012000F0D0FB51EC100B81F0004195
:105A200006B041EC100B10BD00F092FA51EC100BD7
:105A300081F0004106B041EC100B10BD00000000E9
:105A40000000000000000000FB21E93F0000F07FA3
:105A500010B52F499FED2C1B2DED020B84B005983E
:105A600020F000408842DCBF00209DED040B32DDB9
:105A70002849884209D1049840B94FF0010000F04C
:105A80006FFC00F03DFC06B010BD05DB9DED040B86
:105A900000F02AFC06B010BD68469DED040B00F036
:105AA0003BF810F0030011D0012818D09DED021B27
:105AB0009DED000B02281AD000F04AFA51EC100BB1
:105AC00081F0004106B041EC100B10BD9DED021BB2
:105AD0009DED000B012000F06FFB06B010BD9DEDA9
