:020000040800F2
:10000000A844012055020008EF370008DD2C000845
:1000100059360008F5100008455800080000000097
:100020000000000000000000000000009D0100082A
:10003000D521000800000000F10100081D4D000856
:100040006F0200086F0200086F0200086F020008CC
:100050006F0200086F0200086F0200086F020008BC
:100060006F0200086F0200086F0200086F020008AC
:100070006F0200086F0200086F0200086F0200089C
:100080006F0200086F0200086F0200086F0200088C
:10009000FD1100086F0200086F0200086F020008DF
:1000A0006F0200086F0200086F0200086F0200086C
:1000B000454E00086F0200086F0200086F0200083A
:1000C0006F0200086F0200086F0200086F0200084C
:1000D0006F0200086F020008F55300088154000801
:1000E0006F0200086F0200086F0200086F0200082C
:1000F0006F0200086F0200086F0200086F0200081C
:100100006F0200086F0200086F0200086F0200080B
:100110006F0200086F020008395000086F020008E3
:100120006F0200086F0200086F0200086F020008EB
:100130006F0200086F0200086F0200086F020008DB
:10014000891400086F0200086F0200086F0200089F
:10015000D91E00086F0200086F0200080955000848
:100160006F0200086F0200086F0200086F020008AB
:100170006F0200086F0200086F0200086F0200089B
:100180006F0200086F020008DFF80CD000F002FFD9
:1001900000480047495F0008A84401202A4B19681D
:1001A0000868B0E8F04F80F30988BFF36F8F4FF015
:1001B000000080F3118870470000000006480068C6
:1001C000006880F3088862B661B6BFF34F8FBFF353
:1001D0006F8F00DF00BF00BF08ED00E0DFF80C000C
:1001E000016841F470010160704700BF88ED00E0D4
:1001F000EFF30980BFF36F8F134B1A681EF0100FD7
:1002000008BF20ED108A20E9F04F106008B44FF0CD
:10021000500080F31188BFF34F8FBFF36F8F06F04C
:10022000A7FF4FF0000080F3118808BC1968086828
:10023000B0E8F04F1EF0100F08BFB0EC108A80F34A
:100240000988BFF36F8F704724000020EFF305800B
:10025000704700000648804706480047FEE7FEE773
:10026000FEE7FEE7FEE7FEE7FEE7FEE7FEE7FEE766
:10027000514D00088901000870B405880E88446853
:10028000D1F804C05368B54208D1408849888842F3
:1002900001BF11888D425188884203D070BC6FF035
:1002A0000200704705FB00F1880825D094ED001A84
:1002B000DCED000A94ED010AD4ED021A71EE200A79
:1002C0009CED011A30EE011A9CED020AC3ED000A02
:1002D00083ED011AD4ED030A9CED031A31EE800A76
:1002E000103470EE810A83ED020A0CF1100CC3ED9C
:1002F000030A1033401ED9D101F00300B0F1004FC2
:100300000BD300BFB4EC010A401EFCEC010A30EE36
:10031000200AA3EC010AF5D12BE0002829DD211FDA
:100320001B1FACF1040210F0010F0AD0091D121DB1
:1003300091ED000AD2ED000A1B1D30EE200A83ED7C
:10034000000A400815D000BF91ED010AD2ED010A64
:100350000831083230EE200A83ED010A91ED000ADF
:10036000D2ED000A0833401E30EE200A83ED000A69
:10037000EAD170BC00207047018042804360704722
:100380002DE9F04F87B0426800924A680192B0F8B8
:1003900000E045889FEDFE0A00200390AE4506D19F
:1003A00008884988884204BF7146864504D007B052
:1003B0006FF00200BDE8F08F10465FEA010C1CBF31
:1003C0009FEDF41AF0EE400A42D000BFAEEB0C01F4
:1003D000B1F1004F05D300BFE0EC010A491EFBD18B
:1003E00013E0002911DD021F11F0010F1CBF121DC7
:1003F000C2ED000A4B1006D0C2ED010A08325B1EA6
:10040000C2ED000AF8D100EB8100ACF10101A0ECD3
:10041000011AB1F1004F04D3E0EC010A491EFBD1EF
:1004200013E0002911DD021F11F0010F1CBF121D86
:10043000C2ED000A4B1006D0C2ED010A08325B1E65
:10044000C2ED000AF8D100EB8100BCF1010CBDD176
:100450004FF0000A0295002D08BF002000F0068230
:100460004FEA5E0006900EFB05F00590401BF0EE93
:10047000401A049000990AFB05F001EB8004019AF0
:1004800094ED000A02EB8000012621460346F0EEBF
:10049000610ABEF1000F5BD0A4EB85021EF0010FD4
:1004A00018D002EB850292ED001AB5EEC01AF1EEFB
:1004B00010FA08DDB4EEE01AF1EE10FA0ADD00BF22
:1004C000F0EE410A06E0B1EE411AF4EEC10AF1EE97
:1004D00010FAF5D3DDF818C0BCF1000F33D000BF1F
:1004E00002EB850797ED001AB5EEC01AF1EE10FA8F
:1004F00005DDB4EEE01AF1EE10FA09DD06E0B1EE2A
:10050000411AF4EEC10AF1EE10FA01D2F0EE410AFE
:1005100002EBC50292ED001AB5EEC01AF1EE10FA28
:1005200005DDB4EEE01AF1EE10FA09DD06E0B1EEF9
:10053000411AF4EEC10AF1EE10FA01D2F0EE410ACE
:10054000BCF1010CCCD1049A01EB850C0CEB8204BC
:10055000F5EEC00AF1EE10FA00F08081B5EEC00AA7
:10056000059AF1EE10FAA4EB820CD4BFB1EE401A5A
:10057000B0EE401AB4EE601AF1EE10FA5CD0AEEBB9
:100580000A02571E58D005FB0AF20CEB820292EDCC
:10059000002A00BFB0EE421A05FB06F4B5EEC01A01
:1005A00000EB8404F1EE10FAD8BFB1EE411AB4EEBC
:1005B000601AF1EE10FA3CD1A5EB0A06B6F1004F35
:1005C0000BD300BF92ED000ADCED000A761EE2ECD0
:1005D000010AACEC010AF5D10CE0002E0ADD00BFE7
:1005E00092ED000ADCED000A761EE2EC010AACECAA
:1005F000010AF5D12A46B5F1004F0AD394ED000A5D
:10060000D0ED000A521EE4EC010AA0EC010AF5D17B
:100610000CE0002A0ADD00BF94ED000AD0ED000ACC
:10062000521EE4EC010AA0EC010AF5D1012003906E
:100630000AE0761C7F1EADD10398012804D0B5EEE8
:10064000C00AF1EE10FA7CD0A5EB0A0091ED000A89
:100650008B4699460746B0F1004F08D3D1ED000A0A
:10066000401E80EE801AA1EC011AF7D11FE000288D
:100670001DDDABF1040110F0010F06D0F0EE400AD1
:1006800080EEA01A81ED011A091D78100FD000BF6D
:10069000D1ED010A80EE801A81ED011AD1ED020A36
:1006A00080EE801A81ED021A0831401EF0D12846F2
:1006B000B5F1004F09D300BFD3ED000A401E80EE14
:1006C000801AA3EC011AF7D11FE000281DDDA9F163
:1006D000040110F0010F06D0D1ED010A80EE801A5E
:1006E00081ED011A091D68100FD000BF91ED011AAC
:1006F000C1EE000AC1ED010AD1ED020A80EE801AB6
:1007000081ED021A0831401EF0D1DDE900124FF0F0
:1007100000085FEA0E067CD0D04504BF01EB8701DC
:1007200002EB850258D091ED000ADC4648463B4674
:10073000B7F1004F0DD300BFD1ED000ABCEC011A98
:1007400000E08BE040EE410A5B1EE1EC010AF3D1D0
:1007500033E0002F31DD0B1FABF1040C17F0010F5C
:100760000CD00CF1040CF0EE400A9CED002AB0EE27
:10077000601A00EEC21A83ED011A1B1D7C101AD0FC
:10078000D3ED010A9CED011A40EE410A04E000009D
:10079000000000000000803FC3ED010A0CF1080CCE
:1007A00093ED021ADCED000A00EE601A83ED021AE6
:1007B0000833641EE4D101EB87012B46B5F1004FED
:1007C0000BD300BFF0EC010A92ED001A5B1E00EEA5
:1007D000601AA2EC011AF5D12FE0002B2DDDA2F159
:1007E000040CA9F1040013F0010F0AD0001DDCED88
:1007F000010A90ED001A40EE410ACCED010A0CF11D
:10080000040C5C1017D000BF9CED011AD0ED010A5A
:1008100000E019E000EE601A0830641E8CED011A49
:10082000DCED020A90ED001A40EE410ACCED020A1E
:100830000CF1080CE8D102EB850201EB8A01761E6F
:1008400008F101087FF468AF00980AF1010A001D61
:1008500000900298401E02907FF40CAE0399002095
:10086000012904BF07B0BDE8F08F00BFB5EEC00A94
:10087000F1EE10FA08BF6FF0040007B0BDE8F08F8A
:100880002DE9F04F4468B0F8009045880888B1F829
:1008900002C0D2F804A04FF0000B854204BF1388B9
:1008A000994507D15288944504BF9FED322A4FEAFB
:1008B000950E03D06FF00200BDE8F08FD1F8040070
:1008C0000AEB8B0866460027B0EE420A23465FEA31
:1008D0000E0224D090ED001AD3ED001A00EB8C002C
:1008E000D3ED010A01EE810A90ED001A00EB8C00B5
:1008F000D3ED021A00EE810A90ED001A00EB8C0095
:10090000D3ED030A1033521E01EE810A90ED001A56
:10091000120400EB8C00120C00EE810ADAD115F003
:1009200003020BD0F3EC010A90ED001A521E1204E0
:1009300000EB8C0000EE810A120CF3D1781CA8ECBD
:10094000010A87B24868721E160400EB8700360C55
:10095000BAD10BEB0C001FFA80FBA9F101001FFAC2
:1009600080F904EB8504B9F1000FA7D10020BDE8A0
:10097000F08F00000000000070B405880E88446805
:10098000D1F804C05368B54208D1408849888842EC
:1009900001BF11888D425188884203D070BC6FF02E
:1009A0000200704705FB00F1880825D094ED001A7D
:1009B000DCED000A94ED010AD4ED021A71EE600A32
:1009C0009CED011A30EE411A9CED020AC3ED000ABB
:1009D00083ED011AD4ED030A9CED031A31EEC00A2F
:1009E000103470EEC10A83ED020A0CF1100CC3ED55
:1009F000030A1033401ED9D101F00300B0F1004FBB
:100A00000BD300BFB4EC010A401EFCEC010A30EE2F
:100A1000600AA3EC010AF5D12BE0002829DD211F93
:100A20001B1FACF1040210F0010F0AD0091D121DAA
:100A300091ED000AD2ED000A1B1D30EE600A83ED35
:100A4000000A400815D000BF91ED010AD2ED010A5D
:100A50000831083230EE600A83ED010A91ED000A98
:100A6000D2ED000A0833401E30EE600A83ED000A22
:100A7000EAD170BC00207047F0B403884268448813
:100A8000488800264D689C46834205BF09888C42F1
:100A90006FF00200A7081CBFF0BC7047380005EBE0
:100AA00086011BD0B2EC010A401E0004000C81ED4F
:100AB000000A01EB8301B2EC010A81ED000A01EBAF
:100AC0008301B2EC010A81ED000A01EB8301B2EC73
:100AD000010A81ED000A01EB8301E3D114F0030068
:100AE0000AD000BFB2EC010A401E0004000C81EDE8
:100AF000000A01EB8301F5D1701C86B2ACF1010054
:100B00001FFA80FCBCF1000FC8D1F0BC0020704778
:100B100040EA01039B0703D009E008C9121F08C07F
:100B2000042AFAD203E011F8013B00F8013B521EFF
:100B3000F9D27047D2B201E000F8012B491EFBD276
:100B400070470022F6E710B513460A4604461946D8
:100B5000FFF7F0FF204610BD2DE9FE4F804681EAE9
:100B60000300C00F0C46009021F0004123F0004527
:100B7000B8EB0200A94105D24046214690461C46EA
:100B80000B46024623F00040104347D0270DC7F321
:100B90000A00C3F30A510290401A019040286BDA10
:100BA000C3F3130040F4801B0098924620B1002349
:100BB000D2EB030A63EB0B0B01985946C0F14002DC
:100BC000504600F022F906460D4650465946019A15
:100BD00000F03AF910EB08006141002487EA115255
:100BE00084EAE7731A4340D0009A62B3019A012A5B
:100BF0004FEA075215DC001B61EB02014FF0004287
:100C000002EA0752CDE90042001C41F5801132464C
:100C10002B4600F071F903B0BDE8F08F4046214645
:100C2000F9E7001B61EB0201001C41F5801300187D
:100C30005B412018A2F5001747EB030140EAD5708D
:100C4000B6196D4111E06D084FEA360645EAC075E8
:100C50004FEA0752001B61EB0201001C41F58011B5
:100C600049084FEA30000019514132462B4603B083
:100C7000BDE8F04F00F031B9009801224000002398
:100C8000D0EB020263EBE073009821464FEAE07478
:100C9000B8EB000061EB0401E9E783F000435BE798
:100CA00081F0004158E72DE9FE4F81EA030404F08A
:100CB000004421F0004100944FF0000B23F000436A
:100CC00050EA01045ED052EA03045BD0C3F30A5435
:100CD000C1F30A552C44A4F2F3340194A0FB02544E
:100CE000C1F3130141F48011C3F3130343F48013E0
:100CF00001FB024400FB034E840A970A44EA815434
:100D000047EA8357A4FB076802958D0A05FB078510
:100D10004FEA932C04FB0C542705029D4FEA06581A
:100D200047EA1637B5EB08056EEB070C870E920EF7
:100D300047EA811742EA8312A7FB0201B6EB0B01D7
:100D400064EB00042B0D43EA0C335E1844EB1C509B
:100D5000DA465146E7FB0201C5F313044FEA0B33B1
:100D600043EA14534FEA0432019C43EA0603A4F118
:100D70000C040294009CCDE900B400F0BDF803B06F
:100D8000BDE8F08F00200146F9E70EB5C10F80EAFB
:100D9000E0700844CA07002140F233438DE80E009A
:100DA0000A460B4600F0A8F803B000BD00F0004270
:100DB00030F000400AD0C10D01F56071C0F316009B
:100DC00042EA0151C2084007114370470020014622
:100DD000704701F0004330B421F0004150EA0102B5
:100DE00006D00A0DA2F56072C1F31301002A02DCDD
:100DF00030BC00207047440F44EAC104C100E01831
:100E000030BC00EBC25000F031B8202A04DB203A9D
:100E100000FA02F1002070479140C2F1200320FA4D
:100E200003F3194390407047202A04DB203A21FA4B
:100E300002F00021704721FA02F3D040C2F12002F3
:100E40009140084319467047202A06DBCB17203A09
:100E500041FA02F043EAE07306E041FA02F3D040BF
:100E6000C2F1200291400843194670470029A8BFEB
:100E70007047401C490008BF20F00100704710B4C3
:100E8000B0FA80FC00FA0CF050EA010404BF10BC78
:100E9000704749B1CCF1200421FA04F411FA0CF1A5
:100EA00018BF012121430843A3EB0C01CB1D4FEADE
:100EB00000614FEA102042BF002010BC704700EBD9
:100EC000C35010440029A4BF10BC7047401C490007
:100ED00008BF20F0010010BC704710B5141E73F15C
:100EE000000408DA401C41F1000192185B411A43EA
:100EF00001D120F0010010BD2DE9F04D92469B4636
:100F000011B1B1FA81F202E0B0FA80F220329046DB
:100F1000FFF77BFF04460F4640EA0A0041EA0B0157
:100F200053465A46084313D0114653EA010019D0DC
:100F3000C8F140025046FFF777FF05460E4650467F
:100F400059464246FFF761FF084305D0012004E0FF
:100F500020463946BDE8F08D0020054346EAE0769C
:100F60002C4337430A986305E40AA0EB08000022EB
:100F7000FD0A44EA47540A3002D500200146E9E759
:100F8000010510196941DDE9084500196941BDE80D
:100F9000F04DA2E7064C074D06E0E06840F0010383
:100FA00094E8070098471034AC42F6D3FFF7F0F806
:100FB000708100089081000870B58C1810F8015BF2
:100FC00015F0070301D110F8013B2A1106D110F8E2
:100FD000012B03E010F8016B01F8016B5B1EF9D1E6
:100FE0002B0705D40023521E0DD401F8013BFAE76C
:100FF00010F8013BCB1A921C03E013F8015B01F8D7
:10100000015B521EF9D5A142D8D3002070BD00006B
:1010100038B5002412208DF8000034208DF801002E
:1010200000BF0DE000BF4021074804F041FB00284D
:10103000F9D01DF80410044804F000FC601CC4B290
:10104000022CEFDB38BD0000004400402449098831
:10105000F1B3002039E02349095CFE2933D1214A4C
:1010600000F10D01515CEE292DD11146897952799B
:1010700041EA022109B200EE101AB8EEC00ADFED13
:101080001A0A80EE201A194981ED061A1549C97904
:101090000906144A127A41EA0241124AD27A41EA16
:1010A0000221104A127B1143494200EE101AB8EE99
:1010B000C00ADFED0D0A80EE201A0C4981ED071AF7
:1010C00000F10D0188B2411C88B20949098800E08D
:1010D00004E08842BFDB0021014A11807047000014
:1010E000B4000020E53501200000C8420036012090
:1010F000B600002000BFFEE72DE9F0418AB00446AB
:101100000D4616461F46DDF840800121082003F0F9
:101110003FF90121480603F04BF909220021354827
:1011200001F0A6F909220121324801F0A1F90320BA
:10113000019002208DF8080000208DF80A0003209D
:101140008DF8090001208DF80B0001A9294801F054
:1011500047F914208DF8000001208DF801008DF86A
:1011600002008DF80300684602F042FB224800F0BE
:1011700013FB07A800F04BFD00208DF822008DF82E
:1011800023008DF824008DF825008DF8260001201D
:101190008DF827008DF81E808DF81F408DF82050A7
:1011A0008DF82160ADF81C7007A9134800F02DFCE4
:1011B00000208DF816008DF8170001208DF818001A
:1011C0000020ADF80C00ADF80E00ADF81000ADF841
:1011D0001200ADF8140001208DF8190003A800F0EA
:1011E000F7FA01220221044800F006FC0AB0BDE82B
:1011F000F0810000000C02400064004000B585B0A2
:1012000002211F4800F068FBC0B302211C4800F017
:101210006FFA1C491A4800F04FFA6A460021184834
:1012200000F07DFC0098012803D0A0F2012020BB33
:1012300019E09DF80C00082814D19DF81100010652
:101240009DF8100041EA00419DF80F0041EA00209E
:101250009DF80E1008430C49086008460068A0F28B
:101260003D20C86009E09DF80E109DF80D0041EA90
:10127000002000B20449888000BF00BF05B000BD57
:1012800000640040080000323C4001202DE9F0419C
:1012900086B004460D461646002740F2FF10019026
:1012A00000208DF80C008DF80D0008208DF80E0040
:1012B000200A8DF80F008DF81040290A8DF81110C2
:1012C0008DF81250310A8DF813108DF8146000213A
:1012D0008DF815108DF8161001A90A4800F0A7FC2A
:1012E000804600BF01E0781C87B24146054800F007
:1012F00031FD18B940F6FF708742F4DB06B0BDE857
:10130000F081000000640040F0B585B004460D4651
:1013100000264FF40070009000208DF808008DF832
:10132000090008208DF80A00200A8DF80B00E1B2B0
:101330008DF80C1000218DF80D108DF80E108DF821
:101340000F108DF81010290A8DF81110E9B28DF8E0
:1013500012106946094800F06AFC074600BF01E028
:10136000701C86B23946054800F0F4FC18B940F606
:10137000FF708642F4DB05B0F0BD00000064004061
:101380002DE9F0418AB004460D4616461F46DDF8A9
:1013900040800121022002F0FBFF0121880603F0BA
:1013A00007F809220521364801F062F809220621D2
:1013B000334801F05DF86020019002208DF80800AC
:1013C00000208DF80A0003208DF8090001208DF817
:1013D0000B0001A92A4801F003F840208DF8000015
:1013E00002208DF8010001208DF802008DF8030025
:1013F000684602F0FDF9234800F0CEF907A800F096
:1014000006FC00208DF822008DF823008DF82400C2
:101410008DF825008DF8260001208DF827008DF825
:101420001E808DF81F408DF820508DF82160ADF89A
:101430001C7007A9134800F0E8FA0E208DF816007A
:1014400000208DF8170001208DF818000020ADF85D
:101450000C00ADF80E00ADF81000ADF81200ADF8BC
:10146000140001208DF8190003A800F0B1F9012241
:101470000221044800F0C0FA0AB0BDE8F081000083
:10148000000402400068004000B585B002216148B8
:1014900000F022FA00287DD002215E4800F028F9F1
:1014A0006A4600215B4800F03AFB0098B0F5806F77
:1014B00006D0A0F20140002846D0012843D188E0A0
:1014C0000120554948709DF80C009DF80B1040EA2A
:1014D000012000B2514988809DF80E109DF80D0042
:1014E00041EA002000B24D49C8809DF810109DF8D7
:1014F0000F0041EA002000B2484948819DF81100E0
:101500000A2190FBF1F040B2444908729DF81100A5
:101510000A2190FBF1F201FB120040B23F494872F0
:101520009DF812000A2190FBF1F0401EC1B23B4829
:1015300001759DF812000A2190FBF1F201FB1200E7
:10154000C1B23648417561E00120334948709DF8C9
:101550000C009DF80B1040EA012000B22F49888151
:101560009DF80E109DF80D0041EA002001B22B48B5
:10157000C1819DF810109DF80F0041EA0020274915
:10158000C8829DF811000A2190FBF1F040B2234976
:10159000087200E03BE09DF811000A2190FBF1F297
:1015A00001FB120040B21D4948729DF812000A2149
:1015B00090FBF1F0401EC1B2184801759DF8120071
:1015C0000A2190FBF1F201FB1200C1B213484175F0
:1015D0001CE00120104948709DF80B0001069DF8A1
:1015E0000C0041EA00419DF80D0041EA00209DF801
:1015F0000E1008430A49C8609DF810109DF80F00AE
:1016000041EA002000B20649888000BF00BF05B053
:1016100000BD000000680040B0010020B33501208B
:101620004C40012030B585B000244FF4407000904C
:1016300000208DF808008DF8090005208DF80A00BB
:10164000184800788DF80B0017484088010A8DF87B
:101650000C10154881788DF80D101448007800EBB7
:1016600080001349097801EB4000C1B28DF80E10DB
:101670006946104800F0DBFA05468DF811008DF838
:1016800010008DF80F0000BF01E0601C84B22946F5
:10169000084800F05FFB18B940F6FF708442F4DBA5
:1016A00005B030BD080100200E0100200C01002013
:1016B0002A0100200068004000220C4B994202D110
:1016C0000023836111E0C1F3130201F000730BB139
:1016D000C2600AE001F080630BB1026105E001F035
:1016E00000630BB1826000E0426070477000F03030
:1016F000B1F5007F3AD00FDC202928D006DC012983
:101700001CD004291DD0082940D11DE0402921D03A
:10171000B1F5807F3AD126E0B1F5004F31D006DC3B
:10172000B1F5806F25D0B1F5006F2FD124E0B1F570
:10173000803F12D0B1F5003F28D111E0154A8260F8
:1017400025E00822C26022E01022C2601FE00822C9
:1017500002611CE01022026119E00822426016E0DA
:101760001022426013E00422426010E00422426032
:101770000DE0042242600AE00022826104224260FD
:1017800005E0002282610422426000E000BF00BF49
:10179000704700000101010010B504460B48844267
:1017A00009D10121480602F013FE00214FF000701C
:1017B00002F00EFE08E00121880602F009FE002179
:1017C0004FF0806002F004FE10BD00000064004095
:1017D00010B50021837A012202FA03F13D4A126812
:1017E00042F001023B4B1A603A4A1C3212688A43AB
:1017F000384B1C331A60027BCAB9364A0C32126865
:101800008A43344B0C331A604288C38842EA03434C
:10181000304A4032847A42F834300288838842EA7F
:1018200003432C4A4032847A02EBC4025360027BA9
:10183000012A19D1274A0C3212680A43254B0C336E
:101840001A604288038842EA0343224A4032847A7B
:1018500042F83430C288838842EA03431D4A40324A
:10186000847A02EBC4025360C27A3AB9194A121D53
:1018700012688A43174B1B1D1A6006E0154A121D99
:1018800012680A43134B1B1D1A60028932B9114AB0
:10189000143212688A430F4B14331A600289012AEA
:1018A00006D10C4A143212680A430A4B14331A60E8
:1018B000427B012A06D1074A1C3212680A43054BB3
:1018C0001C331A60034A126822F00102014B1A60AD
:1018D00010BD00000066004070B504460D460026AD
:1018E00060692840002871D0B5F5807F5CD010DC9D
:1018F000082D35D006DC012D20D0022D24D0042D5A
:1019000072D127E0102D31D0202D35D0402D6BD154
:1019100038E0B5F5004F60D009DCB5F5007F49D05F
:10192000B5F5806F4CD0B5F5006F5DD14FE0B5F5E2
:10193000803F2DD0B5F5003F56D12FE0A0682D494E
:1019400000F08EFA064651E0E068032100F088FAC4
:1019500006464BE0E068082100F082FA064645E0C2
:10196000E068102100F07CFA06463FE02069032180
:1019700000F076FA064639E02069082100F070FA96
:10198000064633E02069102100F06AFA06462DE091
:101990006068082100F064FA064627E060681021BC
:1019A00000F05EFA064621E0A069012100F058FA35
:1019B00006461BE0A069022100F052FA064615E037
:1019C000A069042100F04CFA06460FE00FE0A06980
:1019D000702100F045FA064608E06068042100F036
:1019E0003FFA064602E0FFE7002600BF00E00026BF
:1019F000304670BD010101001AB143690B434361D8
:101A000002E043698B434361704730B502460020D2
:101A10000023146824F002041460146844F00104E4
:101A2000146000E05B1C546804F001041CB94FF61C
:101A3000FF74A342F6D1546804F001040CB90020ED
:101A40006CE08C79012C04D1146844F0800414609B
:101A500003E0146824F080041460CC79012C04D1D4
:101A6000146844F04004146003E0146824F0400457
:101A700014600C7A012C04D1146844F02004146022
:101A800003E0146824F0200414604C7A012C04D183
:101A9000146844F01004146003E0146824F0100487
:101AA00014608C7A012C04D1146844F0080414608A
:101AB00003E0146824F008041460CC7A012C04D1EB
:101AC000146844F00404146003E0146824F004046F
:101AD00014608C78A407CD7844EA05640D7944EA53
:101AE00005444D7944EA05540D886D1E2C43D4619C
:101AF000146824F001041460002300E05B1C5468A7
:101B000004F001041CB14FF6FF74A342F6D15468EF
:101B100004F001040CB1002000E0012030BD10B53C
:101B200000F5D87303EB01131B6803F00403137271
:101B3000137A53B900F5D87303EB01131B6840F215
:101B4000FF7404EA5353136009E000F5D87303EB04
:101B500001131B686FF0604404EAD303536000F57F
:101B6000D87303EB01131B6803F00203537200F5F3
:101B7000D87303EB01135B6803F00F03937200F556
:101B8000D87303EB01135B681B0AD37400F5D87399
:101B900003EB01139B68D37200F5D87303EB0113B9
:101BA0009B681C0A147300F5D87303EB01139B6840
:101BB0001C0C547300F5D87303EB01139B681B0EC8
:101BC000937300F5D87303EB0113DB68D37300F54F
:101BD000D87303EB0113DB681C0A147400F5D87387
:101BE00003EB0113DB681C0C547400F5D87303EB92
:101BF0000113DB681B0E937421B9C36843F0200303
:101C0000C36003E0036943F02003036110BD0021BA
:101C10008171C171017241728172C1728170C17032
:101C2000032101710221417101210180704710B52A
:101C300002460020936803F08063B3F1806F00D107
:101C400010E0936803F00063B3F1006F01D101204D
:101C500008E0936803F08053B3F1805F01D1022064
:101C600000E00420042874D002F5C07303EB0013D5
:101C70001B6803F0010402F5C07303EB00131C6042
:101C80000B7A7BB94B7A0C8843EA445302F5C07453
:101C900004EB00142468234302F5C07404EB001421
:101CA000236010E00B7A4C6843EAC4034C7A234368
:101CB00002F5C07404EB00142468234302F5C074D9
:101CC00004EB001423608B7A03F00F038B7202F590
:101CD000C07303EB00135B6823F00F0402F5C073BD
:101CE00003EB00135C6002F5C07303EB00135B6849
:101CF0008C7A234302F5C07404EB001463608B7B81
:101D00001C064B7B44EA03440B7B44EA0323CC7A56
:101D1000234302F5C07404EB0014A3608B7C1C0603
:101D20004B7C44EA03440B7C44EA0323CC7B2343EF
:101D300002F5C07404EB0014E36002F5C07303EB1A
:101D400000131B6843F0010402F5C07303EB00139A
:101D50001C6010BD10B50246002321B1012907D037
:101D600002290FD109E090681D4C00EA04030BE042
:101D700090681C4C00EA040306E090681A4C00EAE4
:101D8000040301E0002300BF00BF184C181BA3424E
:101D900016D007DC83B16FF08060184470B1022860
:101DA00018D111E0B0F5007F10D0114C204448B19B
:101DB000B0F5003F0ED10BE002230DE000230BE055
:101DC000002309E0002307E0012305E0012303E0ED
:101DD000012301E0002300BF00BFD8B210BD000006
:101DE00003000004000300080000031000010008C5
:101DF0000001FFF71CB50121084602F0C9FA0420D2
:101E0000009001208DF8040000208DF806000320CA
:101E10008DF8050001208DF807006946034800F0A1
:101E2000DFFA0421014800F04FFB1CBD0000024016
:101E3000052004F0F1FF0EE00748006808B9012012
:101E400000E0002004490860084600680349086073
:101E5000022004F0E1FFEFE740010020840242424B
:101E60000246002002EA01030BB1012000E000203D
:101E70007047000010B50020002100BF08E0134AA1
:101E800032F81030421E114C24F81230421CD0B2ED
:101E90000528F4DB0E4A12780AB9012200E000227C
:101EA0000A4B1A81002006E0084A32F810200A4442
:101EB00091B2421CD0B20528F6DB052291FBF2F26A
:101EC00091B211B90022034BDA6010BD9C40012091
:101ED0000C0100204C40012010B50849084800F0D2
:101EE0000BF9012809D10549054800F00BF8034911
:101EF000034800F021F800F017FB10BD0088002017
:101F0000886402400246094B9A4201D2084801E027
:101F10000648103801F000531BB1064B0B40C3605C
:101F200002E0044B0B4083607047000010640240E5
:101F3000006002407D0F7D0F0246094B9A4201D29C
:101F4000084801E00648103801F000531BB1064B69
:101F50000B40C36002E0044B0B40836070470000FD
:101F600010640240006002407D0F7D0F21B10268C5
:101F700042F00102026003E0026822F00102026006
:101F800070470000016821F001010160002101603B
:101F900041608160C1600161212141614A498842FB
:101FA00004D13D21484A103A91608CE046491831ED
:101FB000884205D14FF47461434A103A916082E03F
:101FC00041493031884205D14FF474113E4A103AEC
:101FD000916078E03C494831884205D14FF0746106
:101FE000394A103A91606EE037496031884204D135
:101FF0003649354A103AD16065E033497831884234
:1020000004D13349304A103AD1605CE02E49903116
:10201000884204D12F492C4A103AD16053E02A4912
:10202000A831884205D14FF03D51274A103AD1607E
:1020300049E02949884204D13D21274A083A1160E4
:1020400041E025491831884205D14FF47461224A94
:10205000083A116037E020493031884205D14FF409
:1020600074111D4A083A11602DE01B49483188421D
:1020700005D14FF07461184A083A116023E01649FF
:102080006031884204D11149134A121F11601AE0CD
:1020900011497831884204D10D490F4A121F11604D
:1020A00011E00D499031884204D10A490A4A121FB1
:1020B000116008E00849A831884204D14FF03D5131
:1020C000054A121F11607047106002403D00002059
:1020D000400F002000003D20106402400146002017
:1020E0000A6802F001020AB1012000E000207047F6
:1020F0000146486880B2704730B503460A46002062
:1021000000240B4DAB4201D20A4901E008491039C5
:1021100002F000550DB14C6800E00C68064D2C40F3
:1021200004EA02050DB1012000E0002030BD0000EE
:1021300010640240006002407D0F7D0F10B501F079
:1021400080034BB122B1436943F08003436103E054
:10215000436923F08003436180290BD02AB10368CF
:1021600001F01E042343036004E0036801F01E0431
:10217000A343036010BD000010B500220268134B9A
:102180001A40CC680B6823434C6923438C69234372
:10219000CC6923430C6A23434C6A23438C6A234350
:1021A0004C6B23438C6B23431A430260426922F039
:1021B0000702D1E90B3423431A4342610B694360A0
:1021C0004B6883608B68C36010BD00003F801CF0CB
:1021D000416070477047000010B54A4800780628F3
:1021E00002D04848007858B94FF47A7046490860E0
:1021F000091F0860002211461046FFF747F877E0F4
:102200004248006900EE100ADFED410AB4EEE00A30
:10221000F1EE10FA05DB00203E49087001203E492E
:1022200008703A48006900EE100ADFED3C0AB4EE8F
:10223000E00AF1EE10FA05D8002036490870364958
:10224000087005E001203349087000203249087009
:1022500031480078022842D02F48007828B940F24F
:102260001E5029490860091F08602B480078012882
:1022700005D140F21E5024490860091F0860254816
:10228000007801280BD12648B0F9042042F21C53F3
:102290000021244802F0D4FB2349088028E01D488F
:1022A000007860B91E48B0F9042042F21C5340F691
:1022B000B8311C4802F0C4FB1B49088018E01548DF
:1022C0000078022814D11648B0F9042042F21C53B9
:1022D0001649144802F0B4FB1349088008E04FF493
:1022E0007A7009490860091F086000200E490880BB
:1022F0004FF47A7004490860091F086001200549FD
:10230000087010BDF0000020380C00407C40012017
:102310000000FA43F2000020F30000200000FAC39E
:102320005C400120CC3F0120A801002048F4FFFFC1
:10233000052004F071FD10E00848006808B901208C
:1023400000E000200549086008460068044908606C
:10235000FFF742FF022004F05FFDEDE7A40100203B
:102360008C02424270B504460E46002507E0701903
:10237000225CE81D04F580710A54681CC5B2072D63
:10238000F5DB0C2104F5807003F014FD012822D147
:1023900040F20710015D94F8340161F3030084F802
:1023A000340140F20710005D010994F8340161F333
:1023B000071084F834014FF48470015D401C005D07
:1023C00041EA002104F59A70A4F83511002140F289
:1023D0003710015503E0012140F23710015570BD5F
:1023E000F0B50A4600210023002400BF3DE001258E
:1023F00005FA01F3156805EA03049C4234D1056827
:102400004F000326BE40B543056015794E00B54028
:102410000668354305601579012D02D01579022D26
:1024200016D185684F000326BE40B54385605579B7
:102430004E00B540866835438560456801268E406C
:10244000B5434560456896798E40B6B235434560E0
:10245000C5684F000326BE40B543C560D5794E0020
:10246000B540C6683543C560491C1029BFD3F0BDCF
:10247000F0B5002300244D07ED0E02FA05F3CE104F
:1024800000F1200555F826504E07F70E0F26BE40E6
:10249000B543CF1000F1200646F82750CE1000F1CA
:1024A000200555F8265045EA0304CE1000F120051A
:1024B00045F82640F0BD0246002013690B400BB1E1
:1024C000012000E00020704741837047018370477E
:1024D00030B5034613B94FF6FF7030BD09E013F86D
:1024E000014B82EA0400C0B2054D35F8100080EAC5
:1024F00022220800A1F10101F1D11046EDE7000010
:102500002E7F000830B5034605E013F8010B80EA82
:1025100002040448025D0800A1F10101F5D1104652
:1025200030BD00002D7E0008012038494870384831
:1025300000783749497840EA0120C0F30A0035495C
:10254000088033484078C0103149897840EA41100A
:10255000C0F30A002F4948802D48807880112C490B
:10256000C97840EA81002A49097940EA8120C0F30C
:102570000A00284988802648007940102449497972
:1025800040EAC110C0F30A002249C88020484079BF
:102590000011800808721E484079C0F3011048728B
:1025A0001B4880791A49C97940EA012000B21949CB
:1025B00088811748007A1649497A40EA012001B219
:1025C0001448C1811248807A1149C97A40EA012031
:1025D00001B2104801820E48017B0E4801750C487B
:1025E000417B0C4841750A48807B0949C97B40EA18
:1025F00001200849C8820648007C0549497C40EA18
:102600000120C0F30A00034948817047B00100204F
:10261000C42F0120B335012010B50748C06800EE73
:10262000100A9FED061ADFED060A03F075FC10EEA6
:10263000100A0149C86010BD7C4001200000C8C2DA
:10264000000020431CB53848007802280DD09FEDCB
:10265000370A374880ED000A364890ED070A3648B9
:1026600080ED000A022030490870324890ED070AD8
:102670003148D0ED000A30EE600A2D4880ED000AA6
:102680002E4890ED000ADFED2E0A20EE200A10EE13
:10269000100A2C49C860294890ED010AD0ED050ABE
:1026A000B2EE041A00EEC10A10EE100A88604FF470
:1026B000FA512448806800EE100AB1EE400ABDEEDF
:1026C000C00A10EE100A00B2CDE900011E48B0F9B0
:1026D000043000221D491E4801F064F81D4948805D
:1026E00041F288311748C06800EE100ABDEEC00AFA
:1026F00010EE100A00B2CDE900011748B0F904301D
:1027000000221649164801F04DF812490880084683
:102710004088404200B2134908800C4880894042FA
:1027200000B2114908801CBD120100200000000009
:1027300018010020003601201C0100206436012011
:102740009A99D93F7C4001204C400120EC3D01206A
:102750001C3E01200E0100203C4001208C3D012048
:10276000BC3D012034010020360100201CB5414849
:10277000007802280DD09FED400A404880ED000A05
:102780003F4890ED070A3F4880ED000A0220394992
:1027900008703B4890ED070A3A48D0ED000A30EE49
:1027A000600A364880ED000A374890ED001AF0EED6
:1027B000410A90ED011A3148D0ED001A31EE211A8C
:1027C000B0EE410A314800F08BFA2F4890ED000A34
:1027D000DFED2F0A20EE200A10EE100A2D49C86006
:1027E000294890ED080AD0ED050AB2EE0C1A00EE69
:1027F000C10A10EE100A88604FF4FA51254880682B
:1028000000EE100AB1EE400ABDEEC00A10EE100A4A
:1028100000B2CDE900012048B0F9043000221F4980
:102820001F4800F0BFFF1F49488041F28831194816
:10283000C06800EE100ABDEEC00A10EE100A00B229
:10284000CDE900011848B0F90430002217491848B2
:1028500000F0A8FF1349088008464088404200B2B3
:102860001449088014488089404200B21349088006
:102870001CBD000012010020000000001801002013
:10288000003601201C01002064360120183A012086
:102890009A99D93F7C4001204C400120AC3E012058
:1028A000DC3E01200E0100203C4001204C3E012076
:1028B0007C3E012034010020EC3D01203601002047
:1028C00010B5FFF7D7FA03F0D9FA08B9012000E0F4
:1028D00000202649087000F0C1FEFEF7A3FEFEF7B7
:1028E000B5FB2348007808B100F0DEF920480078F5
:1028F00028B900201F49087000F042F82EE01C485B
:102900000078022802D1FFF79DFE27E018480078E2
:10291000032802D1FFF72AFF20E015480078042899
:1029200005D100201349087000F058F816E010484F
:10293000007801280DD110480078022803D00E48F5
:102940000078032802D100F015F907E000F012F931
:1029500004E000200749087000F038F80749B1F991
:1029600000000021FEF7D0FC10BD00000C0100208B
:10297000F000002012010020F10000200E010020D4
:1029800010B503F04FFA01F085FC01200B490880D7
:102990000B4908800948008801280DD108460088A5
:1029A000012809D100200549088005490880012037
:1029B000044908600449087010BD0000220100208D
:1029C0002401002008010020F0000020002002491E
:1029D00008804880704700000E0100201CB54C485C
:1029E000007868B94B4890ED070ADFED4B0A30EEEE
:1029F000200A4A4880ED000A01204549087086E017
:102A000043480078012841D14248D0ED070A4348A5
:102A100090ED001A70EEC10AB0EE600A03F047FABA
:102A2000F0EE080AB4EEE00AF1EE10FA10D8022037
:102A30003749087000203A494880364890ED070A27
:102A4000DFED350A30EE600A364880ED000A5EE0C0
:102A500040F24C412F48D0ED070A304890ED000A73
:102A6000B7EE001A01EE600ABDEEC00A10EE100AC1
:102A700000B2CDE900012C48B0F9043000222B4906
:102A80002B4800F08FFE2649488040E0204800781F
:102A900003283CD140F24C411E48D0ED070A2148A2
:102AA00090ED000AB7EE001A01EE600ABDEEC00A12
:102AB00010EE100A00B2CDE900011B48B0F9043055
:102AC00000221A491A4800F06DFE15494880114845
:102AD000D0ED070A134890ED001A70EEC10AB0EE6F
:102AE000600A03F0E4F9F0EE080AB4EEE00AF1EE51
:102AF00010FA0CD80420064908709FED0E0A07480A
:102B000080ED000A9FED0B0A064880ED000A1CBD0F
:102B10002A01002000360120000070422C01002014
:102B20000E010020300100204C400120CC3C01204F
:102B3000FC3C012000000000012004F06DF9FEF7CC
:102B400067FA00F0D9FD10E00848006808B90120D4
:102B500000E0002005490860084600680449086054
:102B6000FFF7AEFE022004F057F9EDE70001002068
:102B7000880242421CB53D48007801280DD09FEDE7
:102B80003C0A3C4880ED000A3B4890ED070A3B4870
:102B900080ED000A012035490870374890ED070A9A
:102BA0003648D0ED000A30EE600A324880ED000A67
:102BB000FFF732FD41F288313148C0684FF4B472FA
:102BC00000FB02F4E01704EB9050801200EE100AB4
:102BD000F8EEC00A2B48C06800EE100A30EE600A1A
:102BE000B1EE400ABDEEC00A10EE100A00B2CDE907
:102BF00000012348B0F9043000222349234800F0A3
:102C0000D1FD234908804FF4FA511E48806800EE38
:102C1000100A1848D0ED000AB7EE001A11EE600A4B
:102C2000BDEEC00A10EE100A00B2CDE9000119484D
:102C3000B0F9043000221849184800F0B3FD1449D7
:102C400048800C4890ED000AF7EE000A20EE200ABA
:102C5000134880ED000A0B48806800EE100AB1EEC0
:102C6000400A104880ED000A1CBD0000120100203F
:102C70000000000018010020003601201C01002087
:102C80003C4001207C4001206C3C01209C3C012008
:102C90000E0100204C400120CC3C0120FC3C0120D6
:102CA000380100203C01002038B5002401200090AC
:102CB00000BF0DE000BF4021074802F0F9FC0028EA
:102CC000F9D01DF80410044802F0B8FD601CC4B22D
:102CD000012CEFDB38BD00000044004000BFFEE7E0
:102CE00010B52DED028BE4B00446B0EE408AF0EE54
:102CF000608A402154A8FDF724FF402144A8FDF735
:102D000020FF00204290439040227B4932A8FDF7EB
:102D1000FFFE20212AA8FDF714FF0020269027900F
:102D200028902990229023902490259020211AA861
:102D3000FDF707FF00201890199014901590169039
:102D4000179054AB0422114612A8FDF715FB44ABB3
:102D50000422114610A8FDF70FFB42AB012202210D
:102D60000EA8FDF709FB32AB042211460CA8FDF7B3
:102D700003FB2AAB042202210AA8FDF7FDFA26ABC9
:102D80000222114608A8FDF7F7FA22AB02221146EB
:102D900006A8FDF7F1FA1AAB0222042104A8FDF7F8
:102DA000EBFA18AB0122022102A8FDF7E5FA14ABF9
:102DB000012204216846FDF7DFFAA06A80ED008A4F
:102DC000A06AC0ED018A04F11C0204F1140104F1AF
:102DD0002C00FDF755FD04F1640204F15C0104F1DF
:102DE0002C00FDF74DFD12AA04F13C0104F1640032
:102DF000FDF746FD04F1640204F14C0112A8FDF751
:102E00003BFA0AAA04F1640104F13400FDF738FD2D
:102E100008AA04F144010AA8FDF732FD06AA04F14C
:102E2000540108A8FDF728FA08A906A8FDF7A8FA92
:102E300004AA04F1440104F16400FDF721FD04F14A
:102E40006C0208A904A8FDF71BFD0EAA04F11C01E1
:102E500004F13400FDF714FD02AA0EA904F12400C8
:102E6000FDF78AFD6A4602A904F16C00FDF708FD32
:102E700004F11402694604F11C00FDF7FDF912AAE1
:102E800004F1340104F16C00FDF7FAFC10AA12A958
:102E90000CA8FDF771FD04F15C0204F1640110A8B7
:102EA000FDF7EEFCA06990ED000A84ED010AA0692F
:102EB00090ED010A84ED020AA06990ED020A84ED0A
:102EC000030AA06990ED030A84ED040AA06990ED5D
:102ED000000A0A4880ED080AA06990ED010A074837
:102EE00080ED070AA06990ED020A044880ED050A0A
:102EF00064B0BDEC028B10BD308100086436012047
:102F000070B504460D4605F114030122042104F1B5
:102F10001400FDF731FA05F124030122042104F124
:102F20001C00FDF729FA05F134030122022104F106
:102F30002400FDF721FA05F144030422114604F1AF
:102F40006400FDF719FA05F184030222042104F15B
:102F50006C00FDF711FA05F1C4030422114604F1D7
:102F60005C00FDF709FA05F582730422114604F1AD
:102F70003C00FDF701FA05F5A2730222042104F1D9
:102F80004400FDF7F9F905F5C2730422114604F176
:102F90002C00FDF7F1F905F5E2730422022104F19A
:102FA0003400FDF7E9F905F501730422114604F137
:102FB0004C00FDF7E1F905F511730222114604F109
:102FC0005400FDF7D9F904F13C0104F12C00FDF7A0
:102FD00053FD04F1440104F13400FDF74DFD70BDD3
:102FE0001CB50121102001F0D3F90121022001F0CC
:102FF000CFF90420009001208DF8040000208DF806
:10300000060003208DF8050001208DF807006946B1
:103010003A48FFF7E5F90820009001208DF80400F8
:1030200000208DF8060003208DF8050001208DF8A2
:10303000070069463148FFF7D3F9102000900120BE
:103040008DF8040000208DF8060003208DF805009F
:1030500001208DF8070069462848FFF7C1F90120D3
:1030600000908DF8040000208DF8060003208DF8F4
:10307000050001208DF8070069462048FFF7B0F9E8
:103080000220009001208DF8040000208DF8060039
:1030900003208DF8050001208DF8070069461748C8
:1030A000FFF79EF98020009001208DF80400002099
:1030B0008DF8060003208DF8050001208DF807002B
:1030C00069460F48FFF78CF904210C48FFF7FEF919
:1030D00008210A48FFF7FAF910210848FFF7F6F926
:1030E00001210648FFF7F2F902210448FFF7EEF943
:1030F00080210348FFF7EAF91CBD000000100240E0
:10310000000402401CB50121084601F041F94FF4CA
:103110008050009001208DF8040000208DF80600FA
:1031200003208DF8050001208DF80700694602484C
:10313000FFF756F91CBD00000000024010B54FF427
:1031400080510248FFF7C2F910BD000000000240A4
:1031500010B52DED028B0446B0EE408A94ED030AC3
:10316000B8EEC00A30EE480A84ED050A94ED060A6E
:10317000D4ED050A30EE200A84ED060A94ED060A25
:10318000BDEEC00A10EE100A184A514202F0D4FEF9
:1031900000EE100AB8EEC00A84ED060A94ED050AA6
:1031A000D4ED070A30EE600ABDEEC00AF0EE408AA8
:1031B00094ED000AD4ED050A20EE200AD4ED010AB0
:1031C00094ED061A00EE810AD4ED020AB8EEE81A70
:1031D00000EE810ABDEEC00A84ED0A0A94ED050AEC
:1031E00084ED070AA06ABDEC028B10BDF0D8FFFF8A
:1031F00010B52DED088BFC48C08A00F4007080B13A
:10320000FA48007880B9FA48007818B90220F849DD
:10321000087002E00020F64908700120F3490870A8
:1032200002E00020F1490870EF48C08A00F4807085
:1032300080B1EE48407880B9ED48007818B9032095
:10324000EB49087002E00020E94908700120E749D5
:10325000487002E00020E5494870E348C08A00F465
:103260008060D8B1E148807940BBE248007804280A
:1032700005D00420DF490870DD4908700AE0DD4808
:103280000078042806D1DC480078022802D1032007
:10329000D94908700120D54988710FE0D6480078D7
:1032A000042808D10020D44908700120D1490870B1
:1032B0000020CF4908700020CC498871CA48C08AD4
:1032C00000F4005060B1C948007960B9CB4800787B
:1032D00010B90120C94908700120C449087102E0F1
:1032E0000020C2490871C048C08A00F4804068B11B
:1032F000BE48407968B9C1480078012802D1002051
:10330000BE4908700120B949487102E00020B74960
:103310004871B548C08A00F4805088B1B3488078BD
:1033200088B9B4480078032803D00320B149087055
:1033300002E00120AF4908700120AC49887002E02A
:103340000020AA498870A848407D012805D1AC49D1
:1033500008700220A749087009E0A94800780128F0
:1033600005D10020A64908700120A24908709E4896
:10337000007D012805D1A34908700020A2490870EA
:1033800015E09948C08A00F4006030B101209D49E1
:10339000087002209C49087009E09A4800780128CA
:1033A00005D10020974908700120974908708E4880
:1033B000807D00F0100028B1012094494870002061
:1033C000087004E000209149487001200870864888
:1033D000807D00F0010018B38348807D00F010006C
:1033E00030B19FED8B0A10EE100A8A4948604AE01E
:1033F0008948B0F90000B0F5967F05DC8648008862
:10340000401C00B2844908808348B0F9000000EEF7
:10341000100AB8EEC00A10EE100A7E49486032E089
:103420007148807D00F0020020B36F48807D00F07D
:10343000100030B19FED790A10EE100A754948600E
:1034400021E07548B0F90000B0F5967F05DC7248C0
:103450000088401C00B2704908806F48B0F9000035
:10346000404200EE100AB8EEC00A10EE100A694998
:10347000486008E06420684908809FED690A10EE02
:10348000100A644948605848807D00F0040020B369
:103490005548807D00F0100030B19FED600A10EEBD
:1034A000100A5C4908604AE05E48B0F90000B0F5D7
:1034B000967F05DC5B480088401C00B259490880B3
:1034C0005848B0F90000404200EE100AB8EEC00AB9
:1034D00010EE100A4F49086031E04348807D00F04B
:1034E000080018B34048807D00F0100030B19FED17
:1034F000480A10EE100A4749086020E04948B0F930
:103500000000B0F5967F05DC46480088401C00B2FC
:10351000444908804348B0F9000000EE100AB8EEB4
:10352000C00A10EE100A3B49086008E064203D49DB
:1035300008809FED3B0A10EE100A364908602D48BE
:103540000078012840D12849B1F90C00FDF71DFC95
:1035500041EC1B0B9FED340B53EC102BFDF7A3FB41
:1035600041EC190B2B4881680846FDF71FFC41EC24
:103570001A0B53EC192BFDF7EFFA41EC180BFDF782
:1035800028FC244988601849B1F90E00FDF7FDFBBD
:1035900041EC1B0B9FED260B53EC102BFDF783FB2F
:1035A00041EC190B1B48C1680846FDF7FFFB41ECD5
:1035B0001A0B53EC192BFDF770FB41EC180BFDF7C0
:1035C00008FC1449C86042E00A480078022833D158
:1035D0009FED130A10EE100A0E4988609FED100A45
:1035E00010EE100AC86032E0B3350120904001208F
:1035F000F1000020F00000202A010020F30000204C
:10360000FA000020FB000020F2000020C80000208B
:10361000000016447C400120FC000020000016C47D
:1036200000000000FE000020E9263108AC1CAA3F83
:10363000EC51B81E85EBC13F1FED070A10EE100AD2
:10364000044988601FED0A0A10EE100AC860BDEC3C
:10365000088B10BD7C40012000BFFEE710B521485B
:10366000008800283DD0002334E01F48C05CFF28BC
:103670002ED11D49D81D085CFE2829D10C465A1CA4
:10368000A15C9A1CA05C02F01FFCDFED180A80EE22
:10369000201A174880ED011ADA1CA15C1A1DA05CE3
:1036A00002F012FCDFED110A80EE201A104880EDC6
:1036B000001A5A1DA15C9A1DA05C02F005FCDFED0A
:1036C0000B0A80EE201A0A4880ED041AD81D83B236
:1036D000581C83B2074800888342C6DB002001499A
:1036E000088010BDBC000020943601200000C842B4
:1036F00064360120BE00002010B5B7EE000A26484F
:1037000080ED610AB7EE000A80ED630AB7EE000AA9
:1037100080ED660AB7EE000A80ED680AB7EE000A8F
:1037200080ED6B0AB7EE000A80ED700AB7EE000A72
:1037300080ED710AB7EE000A80ED760AB7EE000A56
:1037400080ED310AB7EE000A80ED360AB7EE000AC6
:1037500080ED3B0AB7EE000A80ED400AB7EE000AA2
:1037600080ED910AB7EE000A80ED940AB2EE040AE9
:1037700080ED810AB2EE040A80ED860A9FED070A09
:1037800080ED8B0A9FED050A80ED900A0146044802
:10379000FFF7B6FB10BD0000943701200AD7233C89
:1037A000183A01202DE9F04707460C4615461E46FB
:1037B000DDE908A8C4F80CA000EE105AB8EEC00A63
:1037C0002046FFF7C5FCF86000EE106AB8EEC00AAC
:1037D0003846FFF7BDFC8146C8F100024146484625
:1037E00002F0AAFB81460FFA89F0BDE8F087704726
:1037F00070B5002100230F22C4781CB3174C246835
:1038000004F4E064C4F5E064C4F30721C1F10404E6
:10381000E3B20A4144789C40E1B2847814402143E9
:103820000C07210E0E4C05786155047804F01F0535
:103830000124AC4005786D11AD0005F1E025C5F817
:10384000004109E0047804F01F050124AC40054D57
:103850000678761145F8264070BD00000CED00E0BA
:1038600000E400E080E100E002490143024A116007
:10387000704700000000FA050CED00E0B0EE000A11
:10388000FE4880ED000A9FEDFE0A80ED010A9FEDE3
:10389000FC0A80ED020A9FEDFA0A80ED050A9FED11
:1038A000F80A80ED060A9FEDF60A80ED070A00206F
:1038B000F24988629FEDF20A084680ED080A00206E
:1038C000C860B0EE000AEF4880ED000A9FEDEC0AF8
:1038D00080ED010A9FEDEA0A80ED020A9FEDE80AF9
:1038E00080ED050A9FEDE60A80ED060A9FEDE40AE9
:1038F00080ED070A0020E34988629FEDE10A08464F
:1039000080ED080A0020C860B0EE000ADE4880EDB5
:10391000000A9FEDDB0A80ED010A9FEDD90A80EDD8
:10392000020A9FEDD70A80ED050A9FEDD50A80EDCA
:10393000060A9FEDD30A80ED070A0020D24988626B
:103940009FEDCF0A084680ED080A0020C860B0EE5F
:10395000000ACE4880ED000A9FEDC90A80ED010AF9
:103960009FEDC70A80ED020A9FEDC50A80ED050AAA
:103970009FEDC30A80ED060A9FEDC10A80ED070A9C
:103980000020C24988629FEDBE0A084680ED080A01
:103990000020C860B2EE030ABD4880ED000A9FED2A
:1039A000B80A80ED010A9FEDB60A80ED020A9FED8C
:1039B000B40A80ED050A9FEDB20A80ED060A9FED7C
:1039C000B00A80ED070A0020B14988629FEDAC0A79
:1039D000084680ED080A0020C860B2EE030AAD4830
:1039E00080ED000A9FEDA60A80ED010A9FEDA40A72
:1039F00080ED020A9FEDA20A80ED050A9FEDA00A64
:103A000080ED060A9FED9E0A80ED070A0020A1497D
:103A100088629FED9B0A084680ED080A0020C86076
:103A2000B2EE030A9C4880ED000A9FED950A80EDF6
:103A3000010A9FED930A80ED020A9FED910A80ED45
:103A4000050A9FED8F0A80ED060A9FED8D0A80ED35
:103A5000070A0020904988629FED890A084680ED98
:103A6000080A0020C860B2EE030A8C4880ED000A04
:103A70009FED830A80ED010A9FED810A80ED020A25
:103A80009FED7F0A80ED050A9FED7D0A80ED060A15
:103A90009FED7B0A80ED070A0020804988629FED38
:103AA000780A084680ED080A0020C8609FED7C0A6D
:103AB0007C4880ED000A9FED720A80ED010A9FEDBF
:103AC0007A0A80ED020A9FED6E0A80ED050A9FEDED
:103AD0006C0A80ED060A9FED6A0A80ED070A9FEDE9
:103AE000680A80ED080A00206E49888488629FED8C
:103AF000640A084680ED0B0A0020C8609FED6B0A3F
:103B00006B4880ED000A9FED5E0A80ED010A9FED93
:103B10005C0A80ED020A9FED5A0A80ED050A9FEDCE
:103B2000580A80ED060A9FED560A80ED070A9FEDC0
:103B3000540A80ED080A00205D49888488629FED60
:103B4000500A084680ED0B0A0020C860B2EE080A51
:103B5000584880ED000A9FED4A0A80ED010A9FED6A
:103B6000480A80ED020A9FED460A80ED050A9FEDA6
:103B7000440A80ED060A9FED420A80ED070A002004
:103B80004C4988629FED3E0A084680ED080A0020F5
:103B9000C8609FED490A494880ED000A9FED380A48
:103BA00080ED010A9FED460A80ED020A9FED340A7E
:103BB00080ED050A9FED320A80ED060A9FED300A7E
:103BC00080ED070A00203D49888488629FED2C0A19
:103BD000084680ED0B0A0020C860B7EE080A394895
:103BE00080ED000A9FED260A80ED010A9FED240A70
:103BF00080ED020A9FED220A80ED050A9FED200A62
:103C000080ED060A9FED1E0A80ED070A9FED1C0A53
:103C100080ED080A00202B49888488629FED180AED
:103C2000084680ED0B0A0020C8609FED270A274850
:103C300080ED000A9FED120A80ED010A9FED100A47
:103C400080ED020A9FED0E0A80ED050A9FED0C0A39
:103C500080ED060A9FED0A0A80ED070A00201B4945
:103C6000888488629FED060A084680ED0B0A0020D2
:103C7000C860B2EE000A16482CE000004C3B012060
:103C8000000000007C3B0120AC3B0120DC3B01201C
:103C90008C3A0120BC3A0120EC3A01201C3B012067
:103CA0009A99993E0C3C01206210983E6666E64067
:103CB0003C3C0120CC3F0120000020436C3C012013
:103CC0000000C8429C3C012000001643CC3C01206F
:103CD000FC3C012080ED000A1FED170A80ED010A6F
:103CE0001FED190A80ED020A1FED1B0A80ED050A7F
:103CF0001FED1D0A80ED060A1FED1F0A80ED070A61
:103D00001FED210A80ED080A0020FE4988848862A0
:103D10001FED250A084680ED0B0A0020C860B3EEAF
:103D2000050AF94880ED000A1FED2B0A80ED010A13
:103D30009FEDF60A80ED020A1FED2F0A80ED050ABD
:103D40001FED310A80ED060A1FED330A80ED070AE8
:103D50000020ED49888488621FED370A084680ED0F
:103D60000B0A0020C860B2EE050AE94880ED000A9F
:103D70001FED3D0A80ED010A1FED3F0A80ED020AAA
:103D80001FED410A80ED050A1FED430A80ED060A8A
:103D90001FED450A80ED070A1FED470A80ED080A6E
:103DA0000020DB49888488621FED4B0A084680EDBD
:103DB0000B0A0020C8609FEDD70AD74880ED000AA3
:103DC0001FED510A80ED010A1FED530A80ED020A32
:103DD0001FED550A80ED050A1FED570A80ED060A12
:103DE0001FED590A80ED070A0020CB4988848862BC
:103DF0001FED5D0A084680ED0B0A0020C8609FEDAC
:103E0000C70AC74880ED000A1FED630A80ED010A6A
:103E10001FED650A80ED020A1FED670A80ED050AB5
:103E20001FED690A80ED060A1FED6B0A80ED070A97
:103E30001FED6D0A80ED080A0020B9498884886268
:103E40001FED710A084680ED0B0A0020C8609FED47
:103E5000B50AB54880ED000A1FED770A80ED010A2A
:103E60009FEDAA0A80ED020A1FED7B0A80ED050A8C
:103E70001FED7D0A80ED060A1FED7F0A80ED070A1F
:103E80000020A949888488621FED830A084680EDD6
:103E90000B0A0020C860B2EE040AA44880ED000AB4
:103EA0001FED890A80ED010A1FED8B0A80ED020AE1
:103EB0001FED8D0A80ED050A1FED8F0A80ED060AC1
:103EC0001FED910A80ED070A1FED930A80ED080AA5
:103ED00000209649888488621FED970A084680ED85
:103EE0000B0A0020C8609FED8B0A914880ED000A04
:103EF0001FED9D0A80ED010A1FED9F0A80ED020A69
:103F00001FEDA10A80ED050A1FEDA30A80ED060A48
:103F10001FEDA50A80ED070A002085498884886284
:103F20001FEDA90A084680ED0B0A0020C8609FED2E
:103F3000810A814880ED000A1FEDAF0A80ED010A79
:103F40001FEDB10A80ED020A1FEDB30A80ED050AEC
:103F50001FEDB50A80ED060A1FEDB70A80ED070ACE
:103F60001FEDB90A80ED080A002073498884886231
:103F70001FEDBD0A084680ED0B0A0020C8601FED4A
:103F8000B00A6E4880ED000A1FEDC30A80ED010AF9
:103F90009FED6B0A80ED020A1FEDC70A80ED050A4E
:103FA0001FEDC90A80ED060A1FEDCB0A80ED070A56
:103FB00000206249888488621FEDCF0A084680EDA0
:103FC0000B0A0020C860B2EE080A5E4880ED000AC5
:103FD0001FEDD50A80ED010A1FEDD70A80ED020A18
:103FE0001FEDD90A80ED050A1FEDDB0A80ED060AF8
:103FF0001FEDDD0A80ED070A1FEDDF0A80ED080ADC
:1040000000205049888488621FEDE30A084680ED4D
:104010000B0A0020C860B0EE000A4B4880ED000A91
:104020001FEDE90A80ED010A1FEDEB0A80ED020A9F
:104030001FEDED0A80ED050A1FEDEF0A80ED060A7F
:104040001FEDF10A80ED070A00203F49888488624D
:104050001FEDF50A084680ED0B0A0020C860B2EE9D
:10406000010A3A4880ED000A1FEDFB0A80ED010AC3
:104070001FEDFD0A80ED020A9FED350A80ED050A6D
:104080009FED330A80ED060A9FED310A80ED070AA5
:104090009FED2F0A80ED080A00202C498884886251
:1040A0009FED2B0A084680ED0B0A0020C860B3EE96
:1040B000060A284880ED000A9FED250A80ED010AD6
:1040C0009FED230A80ED020A9FED210A80ED050A8B
:1040D0009FED1F0A80ED060A9FED1D0A80ED070A7D
:1040E00000201C49888488629FED190A084680EDEB
:1040F0000B0A0020C8609FED180A184880ED000ADE
:104100002EE00000FC3C01202C3D01206666C842E8
:104110005C3D0120000002434C3E012066664640A3
:104120007C3E01200000A042AC3E0120DC3E01208C
:104130008C3D012066660640BC3D0120EC3D01201F
:10414000CDCC4C3E1C3E01200C3F01203C3F0120C9
:10415000000000006C3F0120333333409C3F0120BE
:104160001FED050A80ED010A1FED070A80ED020A26
:104170001FED090A80ED050A1FED0B0A80ED060A06
:104180001FED0D0A80ED070A1FED0F0A80ED080AEA
:1041900000200549888488621FED130A084680EDD7
:1041A0000B0A0020C86070479C3F0120F8B5044608
:1041B0000E46002507E07019225CE81D04F58071A9
:1041C0000A54681CC5B2142DF5DB192104F5807062
:1041D00001F0F0FD012857D140F20710015D401CAD
:1041E000005D41EA0020A4F87C0140F20910015D65
:1041F000401C005D41EA002104F5BE70A4F87E1168
:1042000040F20B10005D8DF800004FF48670005DE9
:104210008DF8010040F20D10005D8DF802004FF4A2
:104220008770005D8DF803000098C4F8800140F2AB
:104230000F10015D401C005D41EA002104F5BE70D5
:10424000A4F8841140F21110015D401C005D41EAA8
:10425000002104F5BE70A4F8861140F21310015D30
:10426000401C005D41EA002104F5BE70A4F88811ED
:1042700040F21510015D401C005D41EA002104F58B
:10428000BE70A4F88A1103E001214FF4C6700155F5
:10429000F8BD00001CB53748008800284FD141F216
:1042A00088313548C0684FF4B47200FB02F4E0175F
:1042B00004EB9050801200B2CDE900012E48B0F915
:1042C000043000222D492E48FFF76CFA2D49088052
:1042D0002949096840F23D22501A002801DB0146B5
:1042E00000E04142142914DA2748B0F900003228CE
:1042F00008DB01201F49088000202349088023494A
:1043000008800CE020480088401C00B21E4908804C
:1043100005E01E480088401C00B21C4908801B486C
:10432000B0F9000040F2DC51884221D1012011494E
:1043300008800020144908801449088018E041F2E0
:1043400088310D48C0684FF4B47200FB02F4E017E6
:1043500004EB9050801200B2CDE900010648B0F99C
:104360000430002205490648FFF71CFA0549088079
:104370001CBD0000240100203C4001206C3C0120B9
:104380009C3C01200E010020280100202601002075
:1043900029B1064A12680243044B1A6004E0034A3A
:1043A00012688243014B1A607047000030380240A7
:1043B00029B1064A12680243044B1A6004E0034A1A
:1043C00012688243014B1A60704700004038024077
:1043D00029B1064A12680243044B1A6004E0034AFA
:1043E00012688243014B1A60704700002038024077
:1043F00029B1064A12680243044B1A6004E0034ADA
:1044000012688243014B1A60704700004438024032
:1044100029B1064A12680243044B1A6004E0034AB9
:1044200012688243014B1A60704700002438024032
:10443000F0B5002100220024022500260223324F7D
:104440003F6807F00C0121B1042905D0082937D1B4
:1044500005E02E4F076036E02D4F076033E02A4F0E
:104460003F1F3F68C7F38056274F3F1F3F6807F045
:104470003F036EB1264FB7FBF3F7DFF88CC0ACF10A
:10448000040CDCF800C0CCF3881C07FB0CF40CE037
:104490001E4FB7FBF3F7DFF870C0ACF1040CDCF88B
:1044A00000C0CCF3881C07FB0CF4174F3F1F3F687C
:1044B000C7F301477F1C7D00B4FBF5F7076002E0FE
:1044C000124F076000BF00BF0F4F3F6807F0F001B9
:1044D0000909104F7A5C0768D74047600A4F3F6868
:1044E00007F4E051890A0B4F7A5C4768D740876030
:1044F000054F3F6807F46041490B064F7A5C4768F7
:10450000D740C760F0BD0000083802400024F40026
:1045100040787D011400002010B52DED088B8948EE
:10452000B0F90000B0F5AF7F27DB8648B0F9000096
:1045300040F2A461884220DC8248B0F90200B0F564
:10454000AF7F1ADB7F48B0F90200884215DC7D4856
:10455000B0F90400B0F5AF7F0FDB7A48B0F9040082
:1045600088420ADC7748B0F90600B0F5AF7F04DB7B
:104570007448B0F90600884206DD4FF48060714946
:10458000C8808880488008806E49B1F90010A1F584
:104590008060002801DB014600E041420A2903DA7D
:1045A0004FF48060674908806649B1F90210A1F5AF
:1045B0008060002801DB014600E041420A2903DA5D
:1045C0004FF480605F4948805E49B1F90410A1F55D
:1045D0008060002801DB014600E041420A2903DA3D
:1045E0004FF48060574988805649B1F90610A1F50B
:1045F0008060002801DB014600E041420A2903DA1D
:104600004FF480604F49C8804F480078012869D135
:104610004C48B0F90000A0F5806000EE100AB8EE3A
:10462000C00A10EE100A494908604648B0F9020075
:10463000A0F5806000EE100AB8EEC00A10EE100A75
:1046400048604049B1F90410A1F58060FCF79DFB7A
:1046500041EC1B0B9FED3E0B53EC102BFCF723FBA7
:1046600041EC190B394881680846FCF79FFB41EC87
:104670001A0B53EC192BFCF76FFA41EC180BFCF7F3
:10468000A8FB324988602F49B1F90610A1F5806076
:10469000FCF77BFB41EC1B0B9FED2D0B53EC102B20
:1046A000FCF701FB41EC190B2848C1680846FCF7F0
:1046B0007DFB41EC1A0B53EC192BFCF74DFA41EC46
:1046C000180BFCF786FB2149C8601E48B0F90A00A8
:1046D000C0F5806000EE100AB8EEC00A10EE100AB5
:1046E00008612BE018480078022825D11548B0F958
:1046F0000000A0F5806000EE100AB8EEC00A10EECF
:10470000100A124908600F48B0F90200A0F5806055
:1047100000EE100AB8EEC00A10EE100A4860094810
:10472000B0F90A00A0F5806000EE100AB8EEC00AE9
:1047300010EE100A086101E000F062F9BDEC088B90
:1047400010BD0000B3350120F00000207C400120A6
:10475000462575029A086B3F70B504460E46002543
:1047600007E07019225CE81D04F580710A54681C8A
:10477000C5B2162DF5DB1B2104F5807001F01AFB84
:1047800001287DD140F20710005D84F869014FF4E3
:104790008470015D4FF4B570015540F20910015D60
:1047A000401C005D41EA002104F26910A4F86B117D
:1047B00040F20B10015D401C005D41EA002104F253
:1047C0006910A4F86D1140F20D10015D401C005DF0
:1047D00041EA002104F26910A4F86F1140F20F10B1
:1047E000015D401C005D41EA002104F26910A4F85B
:1047F000711140F21110015D401C005D41EA002181
:1048000004F26910A4F8731140F21310015D401C0A
:10481000005D41EA002104F26910A4F8751140F22C
:104820001510015D40F2771001554FF48B70015D5A
:104830004FF4BC70015540F21710015D40F2791041
:1048400001554FF48C70015D4FF4BD70005D61F354
:1048500000004FF4BD7108554FF48C70005D4108A5
:104860004FF4BD70005D61F341004FF4BD71085518
:104870004FF48C70005D81084FF4BD70005D00E066
:1048800009E061F382004FF4BD710855002140F248
:104890007B10015503E0012140F27B10015570BDF2
:1048A00070B50446002585E0605DA5282ED1052160
:1048B000204601F09FFA01287AD1681C215CA81CCF
:1048C000205C41EA002000B2A4F82F01681D215CA1
:1048D000A81D205C41EA002000B2A4F831010026A6
:1048E00006E07019215C04F580708155701CC6B219
:1048F000072EF6DBB4F83101012808D1E81DC1B25A
:104900002046FDF72FFD05F10B00C5B250E0B4F8CD
:10491000310103284CD0B4F83101042848D0B4F94F
:10492000310140F20111884242D0B4F93101B0F5B1
:10493000817F3DD0B4F93101091D884238D0B4F9E6
:10494000310140F20121884208D1E81DC1B2204660
:10495000FFF702FF05F11A00C5B229E0B4F93101F1
:1049600040F20221884208D1E81DC1B22046FFF77B
:104970001DFC05F11800C5B21AE0B4F93101B0F51B
:10498000017F15D0B4F9310140F2052188420FD0E2
:10499000B4F93101491C88420AD0B4F93101491CEB
:1049A000884205D0B4F93101B0F5027F00D000BFD4
:1049B000681CC5B2B4F92D01A8423FF775AF0020BD
:1049C000014981F8330170BD0F340120052002F048
:1049D00023FA10E00848006808B9012000E0002030
:1049E00005490860084600680449086000F05AF864
:1049F000072002F011FAEDE7F400002080024242A5
:104A00009FED0D0A10EE100A0C4908609FED0A0A8E
:104A100010EE100A48609FED080A10EE100A886038
:104A20009FED050A10EE100AC8609FED030A10EE14
:104A3000100A086170470000000000007C4001205F
:104A40002DE9F04104460E4690461D46E660C4F846
:104A50001080D4ED040AF8EEE00AB0EE600A2046B9
:104A6000FEF776FB07466A422946384601F064FAAB
:104A7000074638B2BDE8F0810EE00848006808B982
:104A8000012000E00020054908600846006804494C
:104A90000860142002F0C0F9EFE70000AC0100202C
:104AA0009002424210B55048407A01283CD14F480C
:104AB0000078022806D100204D4908704D49087041
:104AC000FFF79EFF4C480078062805D100204A4990
:104AD0000870FFF795FF24E047480078022803D0CC
:104AE00045480078032803D101204349087018E0A5
:104AF00041480078A8B1FFF70FFD3B48007A012834
:104B000002D103203A4908703748007A032802D1BD
:104B10000020374908703448007A022801D134490E
:104B200008700120314908702F48407A032840D18D
:104B30002E480078012802D02C48007870B92B4804
:104B4000007810B906202C49087000202849087008
:104B50002849087029490860FFF752FF2648007865
:104B6000062805D1002024490870FFF749FF1DE001
:104B700021480078D0B11C48007A012807D1FFF7FE
:104B8000CBFC03201C490870012019490870164805
:104B9000007A022804D1FFF7BFFC022016490870F2
:104BA0001148007A032801D1FEF722FB02200F49A9
:104BB00008700D48407A022809D106200E49087075
:104BC00000200F49086009490870FFF719FF0648DF
:104BD000407A38B906200849087000200849086062
:104BE000FFF70EFF10BD0000B3350120F8000020D4
:104BF000F1000020F3000020F0000020120100204E
:104C0000080100200CB50020019000903448006895
:104C100040F480303249086000BF3148006800F439
:104C2000003000900198401C0190009818B901983C
:104C3000B0F5A04FF1D12A48006800F4003010B15F
:104C40000120009001E0002000900098012846D14A
:104C500023484030006840F08050214940310860CE
:104C60002048006840F440401E4908601C48083055
:104C700000681B49083108600846006840F400409D
:104C800008600846006840F4A05008601648091FF4
:104C90000860081F006840F08070091F086000BFAE
:104CA0000F48006800F000700028F9D040F205704D
:104CB0000E4908600A480830006820F003000849DF
:104CC000083108600846006840F00200086000BF34
:104CD00003480830006800F00C000828F8D10CBD2B
:104CE000003802400070004019544007003C024068
:104CF0001CB50548012100233222CDE9001003A193
:104D0000054802F009FE1CBDD400002073746172D6
:104D1000745F7461736B0000656A000810B500BFB2
:104D2000502080F31188BFF34F8FBFF36F8F00BF08
:104D300002F038FE18B14FF080500449086000BFFF
:104D4000002080F3118800BF10BD000004ED00E0DA
:104D500010B51548006840F4700013490860134806
:104D6000006840F001001149086000200F49083137
:104D700008600E4800680E4908400C4908600D485C
:104D8000091D0860081F006820F48020091F0860C2
:104D9000002006490C310860FFF734FF4FF0006037
:104DA00001498039086010BD88ED00E000380240FC
:104DB000FFFFF6FE1030002408B54FF44070FEF7F8
:104DC00053FDFEF70DF9FEF79DF901F03FF8FDF7F1
:104DD00011F800200323042207210090FCF78CF92E
:104DE00000200323042207210090FCF7C9FA00F0F9
:104DF0002BFD00F0C3FD00F085FE00F049FF5921B6
:104E000045F2762000F096F84FF47A700A4908606F
:104E1000091F08605321632000F01EF80020074995
:104E20000860091D0860FEF729FD0120044908609B
:104E3000FEF784F908BD0000380C0040340400403F
:104E40009C82404210B50121880700F033F901210E
:104E5000880700F020F910BD30B58BB004460D4630
:104E600001210220FFF7A4FA01210846FFF790FA7A
:104E7000022206212D48FDF7FBFA022207212B48CA
:104E8000FDF7F6FA4020099002208DF82800032053
:104E90008DF8290000208DF82A0002208DF82B00C3
:104EA00009A92248FDF79CFA8020099002208DF87C
:104EB000280003208DF8290000208DF82A00022008
:104EC0008DF82B0009A91948FDF78AFAA8B2ADF8A8
:104ED00018000020ADF81A000794ADF8200006A9CC
:104EE000134800F045FA6020ADF804000120ADF849
:104EF00006000020ADF8100001A90D4800F0ECF804
:104F000008210B4800F026F901A9094800F02CF906
:104F10000821074800F07AF90121054800F0ACF8B3
:104F20000121034800F0BAF80BB030BD0000024088
:104F30000004004030B58BB004460D460121082026
:104F4000FFF736FA01218020FFF722FA012108023B
:104F5000FFF71EFA02220A213448FDF789FA0222DD
:104F60000B213248FDF784FA02220C212F48FDF76D
:104F70007FFA022200212E48FDF77AFA41F601401D
:104F8000099002208DF8280003208DF829000020C8
:104F90008DF82A0001208DF82B0009A92348FDF780
:104FA0001FFA09A92248FDF71BFAA8B2ADF81800AC
:104FB0000020ADF81A000794ADF8200006A91D489E
:104FC00000F0D6F96020ADF804000120ADF806002D
:104FD0000020ADF8100001A9164800F07DF801A9E5
:104FE000144800F0C1F801A9124800F01DF901A908
:104FF000104800F073F908210E4800F0ABF80821C2
:105000000C4800F003F908210A4800F05DF9082176
:10501000084800F09FF90121064800F02DF8012111
:10502000044800F03BF80BB030BD0000001C02400B
:1050300000200240000C004010B501210C4800F097
:1050400039F898B101210A4800F025F801210848F3
:1050500000F01EF807480088401C00B2054908808F
:10506000084600880A2801D10020088010BD0000F1
:10507000001000409C00002021B1028842F0800214
:10508000028004E002884FF67F731A400280704766
:10509000CA4302827047CA430282704721B1028824
:1050A00042F00102028004E002884FF6FE731A40CB
:1050B0000280704730B50246002000230024158A84
:1050C00005EA0103958905EA010413B10CB1012039
:1050D00000E0002030BD000070B500240022002355
:1050E000058C4FF6FE7635400584028C8388048B50
:1050F0004FF68F752C40B51E2C400D882C43751E25
:105100002A408D892A434D882A43104DA84202D057
:105110000F4DA84213D14FF6F7752A40CD892A4387
:105120004FF6FB752A408D882A434FF6FF652B40CA
:105130004FF6FF552B400D8A2B434D8A2B4383801E
:1051400004838D684563028470BD00000000014047
:10515000000401400A460021018B4FF6F773194005
:10516000114301837047000070B500240022002322
:10517000058C4FF6EF7635400584028C8388048BCE
:1051800048F6FF752C404FF6FF452C400D884FF632
:10519000FF7606EA05252C434FF6DF752A408D89F8
:1051A00006EA05152A434D8806EA05152A43154DDA
:1051B000A84202D0144DA8421DD14FF67F752A4057
:1051C000CD894FF6FF7606EA05152A434FF6BF75DF
:1051D0002A408D8806EA05152A434FF6FF352B40F5
:1051E0004FF2FF752B400D8A06EA85052B434D8A49
:1051F00006EA85052B43838004838D6885630284DA
:1052000070BD000000000140000401400A4600217A
:10521000018B4FF2FF7319404FF6FF7303EA02232D
:10522000194301837047000070B500240022002359
:10523000058C4FF6FF6635400584028C8388848B8D
:105240004FF68F752C404FF6FC752C400D882C4383
:105250004FF6FF552A408D894FF6FF7606EA052561
:105260002A434D8806EA05252A43154DA84202D057
:10527000144DA8421DD14FF2FF752A40CD894FF63B
:10528000FF7606EA05252A434FF6FF352A408D882A
:1052900006EA05252A434EF6FF752B404DF6FF75AD
:1052A0002B400D8A06EA05152B434D8A06EA0515A3
:1052B0002B43838084838D68C563028470BD0000A6
:1052C00000000140000401400A460021818B4FF696
:1052D000F7731940114381837047000070B50022B5
:1052E00000230024058C4EF6FF7635400584038CA0
:1052F0008488828B48F6FF752A404FF6FF452A4086
:105300000D884FF6FF7606EA05252A434DF6FF7510
:105310002B408D8906EA05352B434D8806EA053575
:105320002B430A4DA84202D0094DA84208D14BF6A2
:10533000FF752C400D8A4FF6FF7606EA85152C4343
:10534000848082838D680564038470BD0000014001
:10535000000401400A460021818B4FF2FF7319407F
:105360004FF6FF7303EA022319438183704700005D
:1053700000220288184B98420ED0184B98420BD04E
:10538000B0F1804F08D0164B984205D0154B98428B
:1053900002D0154B984204D14FF68F731A404B88B8
:1053A0001A43124B984207D0114B984204D04FF643
:1053B000FF431A400B891A4302804B68C3620B8873
:1053C0000385054B984202D0044B984201D18B7A59
:1053D00003860123838270470000014000040140DE
:1053E0000004004000080040000C00400010004095
:1053F0000014004070B5002540F224411A4800F026
:1054000064F900282FD000211848FCF7AFFD00BF39
:105410001648FCF763FE0028FAD113480088C5B28D
:105420001148001D0088C5B21048FCF761FEC0F1AC
:105430001900C5B20E480580002405E00D48005D46
:105440000D490855601C84B2AC42F7DB19210748AE
:10545000FCF7BEFE01210548FCF788FD0120074945
:105460000880FBF7F3FD70BD0044004088600240F7
:10547000B6000020DD2F0120E5350120B40000201A
:1054800070B5002540F22441194800F01EF968B3B8
:1054900000211848FCF76AFD00BF1648FCF71EFE05
:1054A0000028FAD112480088C5B21148001D0088B2
:1054B000C5B21048FCF71CFE4042C5B20E4805803C
:1054C000002405E00D48005D0D490855601C84B2BC
:1054D000AC42F7DB4FF480710648FCF779FE0121FE
:1054E0000448FCF743FD01200649088070BD000018
:1054F0000048004028600240BE0000200F3001201C
:1055000094360120BC00002070B50024002540F234
:1055100024411C4800F0D9F890B300211A48FCF748
:1055200025FD00BF1848FCF7D9FD0028FAD1154821
:1055300000881448001D00881348FCF7D9FDC0F509
:10554000807085B228B21149A1F82D01002405E030
:105550000F48005D0D490855601C84B2AC42F7DB72
:105560000A48FFF79DF94FF480710748FCF730FEB9
:1055700001210548FCF7FAFC0120044981F83301B8
:1055800070BD000000140140286402400F34012067
:105590000F32012021B1828942F40052828104E05D
:1055A00082894DF6FF731A40828170471AB1838A4F
:1055B0000B43838202E0838A8B438382704700001F
:1055C00010B504463248844208D101211020FEF76C
:1055D0001FFF00211020FEF71BFF57E02D488442DB
:1055E00009D101214804FEF7F3FE00214FF40030F9
:1055F000FEF7EEFE4AE02848844209D101218804E2
:10560000FEF7E6FE00214FF48020FEF7E1FE3DE0CC
:105610002248844209D10121C804FEF7D9FE0021A5
:105620004FF40020FEF7D4FE30E01D48844209D13B
:1056300001210805FEF7CCFE00214FF48010FEF793
:10564000C7FE23E01748844208D101212020FEF73D
:10565000DFFE00212020FEF7DBFE17E01248844227
:1056600009D101218807FEF7B3FE00214FF08040E9
:10567000FEF7AEFE0AE00D48844207D10121400545
:10568000FEF7A6FE00216005FEF7A2FE10BD000099
:10569000001001400044004000480040004C004021
:1056A000005000400014014000780040007C0040A1
:1056B00002460020B1F5007F00D100BF13880B40E7
:1056C0000BB1012000E00020704770B502460024B5
:1056D00000230025002040F66A16B14200D100BF29
:1056E000C1F3421501F01F03012606FA03F3012D51
:1056F00002D19689334006E0022D02D1168A33404A
:1057000001E0968A33400C12012606FA04F416884A
:10571000344013B10CB1012000E0002070BDF0B5A1
:105720000346002400260025002040F66A17B942EF
:1057300000D100BF1846C1F3421401F01F06012733
:1057400007FA06F5012C01D10C3004E0022C01D13E
:10575000103000E014301AB107682F43076002E0F0
:105760000768AF430760F0BD2DE9FF4705460E46C9
:105770000024A14600BFA046B08900B100BF2C8A1A
:1057800024F44054F08804432C82AC8941F20C602C
:105790008443B08831890843718908430443AC814C
:1057A000AC8A24F44074B0890443AC826846FEF7A6
:1057B0003FFE2048854202D01F48854202D1DDF8D5
:1057C0000C9001E0DDF80890A88900F4004040B199
:1057D00009EBC90000EB091031684900B0FBF1F793
:1057E00007E009EBC90000EB091031688900B0FB44
:1057F000F1F76420B7FBF0F004012009642101FBFC
:105800001078A88900F4004040B1322000EBC800B5
:10581000B0FBF1F000F00700044308E0322000EB99
:1058200008106421B0FBF1F000F00F0004432C815C
:10583000BDE8FF870010014000140140C1F30802D9
:105840008280704700BFFEE700B597B00121454850
:10585000FEF79EFD01211020FEF7CAFD07220A2156
:105860004148FCF705FE4FF48060159002208DF84A
:10587000580000208DF85A0003208DF859000020B0
:105880008DF85B0015A93848FCF7AAFD3748FFF7EB
:1058900097FE374811900020ADF84800ADF84A0057
:1058A0004FF48060ADF84C000420ADF84E000020AD
:1058B000ADF8500011A92D48FFF756FF01212B48E4
:1058C000FFF768FE012240212848FFF76FFE4420C1
:1058D0008DF8040000208DF805008DF806000120E9
:1058E0008DF8070001A8FDF783FF00212148FCF790
:1058F0003DFB00BF1F48006800F001000028F9D1FF
:105900001C48FCF73FFB4FF0006002901748001D59
:105910000390194804900020059012200690002062
:1059200007904FF480600890002009900A904FF48F
:1059300080700B904FF440300C9000200D900E9032
:105940000F90109002A90B48FCF716FC01221021C1
:105950000848FCF7F3FB01210648FCF707FB17B0EA
:1059600000BD0000010040000000024000100140A6
:10597000A086010088640240C42F012000B58FB0CA
:1059800001215A48FEF704FD01214804FEF710FDED
:10599000072205215648FCF76BFD072206215448D3
:1059A000FCF766FD60200D9002208DF83800002085
:1059B0008DF83A0002208DF8390001208DF83B0067
:1059C0000DA94B48FCF70CFD4A48FFF7F9FD4FF4D1
:1059D000E13008900020ADF82400ADF82600ADF8C5
:1059E00028000C20ADF82A000020ADF82C0008A9F2
:1059F0004048FFF7B9FE26208DF8300001208DF8D1
:105A000033008DF831008DF832000CA8FDF7F0FE60
:105A1000012240F224413748FFF781FE0121354839
:105A2000FFF7B8FD3448FCF7ADFA4FF00060009086
:105A30003048001D01903148029040200390192009
:105A40000490002005904FF480600690002007909D
:105A500008904FF4807009904FF440300A90002075
:105A60000B900C900D900E9069462348FCF784FB38
:105A700000212148FCF77AFA012280211D48FFF716
:105A800095FD1D481838FCF77DFA4FF00060009036
:105A90001848001D01901A48029000200390192018
:105AA0000490002005904FF480600690002007903D
:105AB00008904FF4807009904FF440300A90002015
:105AC0000B900C900D900E9069460B481838FCF71F
:105AD00053FB012108481838FCF748FA01224021FD
